{
  "_format": "hh-sol-artifact-1",
  "contractName": "DAOTimelock",
  "sourceName": "contracts/DAOTimelock.sol",
  "abi": [
    {
      "inputs": [
        {
          "internalType": "uint256",
          "name": "minDelay",
          "type": "uint256"
        },
        {
          "internalType": "address[]",
          "name": "proposers",
          "type": "address[]"
        },
        {
          "internalType": "address[]",
          "name": "executors",
          "type": "address[]"
        },
        {
          "internalType": "address",
          "name": "admin",
          "type": "address"
        },
        {
          "internalType": "address",
          "name": "_pauser",
          "type": "address"
        }
      ],
      "stateMutability": "nonpayable",
      "type": "constructor"
    },
    {
      "inputs": [],
      "name": "AccessControlBadConfirmation",
      "type": "error"
    },
    {
      "inputs": [
        {
          "internalType": "address",
          "name": "account",
          "type": "address"
        },
        {
          "internalType": "bytes32",
          "name": "neededRole",
          "type": "bytes32"
        }
      ],
      "name": "AccessControlUnauthorizedAccount",
      "type": "error"
    },
    {
      "inputs": [],
      "name": "EnforcedPause",
      "type": "error"
    },
    {
      "inputs": [],
      "name": "ExpectedPause",
      "type": "error"
    },
    {
      "inputs": [],
      "name": "FailedCall",
      "type": "error"
    },
    {
      "inputs": [
        {
          "internalType": "uint256",
          "name": "delay",
          "type": "uint256"
        },
        {
          "internalType": "uint256",
          "name": "minDelay",
          "type": "uint256"
        }
      ],
      "name": "TimelockInsufficientDelay",
      "type": "error"
    },
    {
      "inputs": [
        {
          "internalType": "uint256",
          "name": "targets",
          "type": "uint256"
        },
        {
          "internalType": "uint256",
          "name": "payloads",
          "type": "uint256"
        },
        {
          "internalType": "uint256",
          "name": "values",
          "type": "uint256"
        }
      ],
      "name": "TimelockInvalidOperationLength",
      "type": "error"
    },
    {
      "inputs": [
        {
          "internalType": "address",
          "name": "caller",
          "type": "address"
        }
      ],
      "name": "TimelockUnauthorizedCaller",
      "type": "error"
    },
    {
      "inputs": [
        {
          "internalType": "bytes32",
          "name": "predecessorId",
          "type": "bytes32"
        }
      ],
      "name": "TimelockUnexecutedPredecessor",
      "type": "error"
    },
    {
      "inputs": [
        {
          "internalType": "bytes32",
          "name": "operationId",
          "type": "bytes32"
        },
        {
          "internalType": "bytes32",
          "name": "expectedStates",
          "type": "bytes32"
        }
      ],
      "name": "TimelockUnexpectedOperationState",
      "type": "error"
    },
    {
      "anonymous": false,
      "inputs": [
        {
          "indexed": true,
          "internalType": "bytes32",
          "name": "id",
          "type": "bytes32"
        },
        {
          "indexed": true,
          "internalType": "uint256",
          "name": "index",
          "type": "uint256"
        },
        {
          "indexed": false,
          "internalType": "address",
          "name": "target",
          "type": "address"
        },
        {
          "indexed": false,
          "internalType": "uint256",
          "name": "value",
          "type": "uint256"
        },
        {
          "indexed": false,
          "internalType": "bytes",
          "name": "data",
          "type": "bytes"
        }
      ],
      "name": "CallExecuted",
      "type": "event"
    },
    {
      "anonymous": false,
      "inputs": [
        {
          "indexed": true,
          "internalType": "bytes32",
          "name": "id",
          "type": "bytes32"
        },
        {
          "indexed": false,
          "internalType": "bytes32",
          "name": "salt",
          "type": "bytes32"
        }
      ],
      "name": "CallSalt",
      "type": "event"
    },
    {
      "anonymous": false,
      "inputs": [
        {
          "indexed": true,
          "internalType": "bytes32",
          "name": "id",
          "type": "bytes32"
        },
        {
          "indexed": true,
          "internalType": "uint256",
          "name": "index",
          "type": "uint256"
        },
        {
          "indexed": false,
          "internalType": "address",
          "name": "target",
          "type": "address"
        },
        {
          "indexed": false,
          "internalType": "uint256",
          "name": "value",
          "type": "uint256"
        },
        {
          "indexed": false,
          "internalType": "bytes",
          "name": "data",
          "type": "bytes"
        },
        {
          "indexed": false,
          "internalType": "bytes32",
          "name": "predecessor",
          "type": "bytes32"
        },
        {
          "indexed": false,
          "internalType": "uint256",
          "name": "delay",
          "type": "uint256"
        }
      ],
      "name": "CallScheduled",
      "type": "event"
    },
    {
      "anonymous": false,
      "inputs": [
        {
          "indexed": true,
          "internalType": "bytes32",
          "name": "id",
          "type": "bytes32"
        }
      ],
      "name": "Cancelled",
      "type": "event"
    },
    {
      "anonymous": false,
      "inputs": [
        {
          "indexed": false,
          "internalType": "uint256",
          "name": "oldDuration",
          "type": "uint256"
        },
        {
          "indexed": false,
          "internalType": "uint256",
          "name": "newDuration",
          "type": "uint256"
        }
      ],
      "name": "MinDelayChange",
      "type": "event"
    },
    {
      "anonymous": false,
      "inputs": [
        {
          "indexed": false,
          "internalType": "address",
          "name": "account",
          "type": "address"
        }
      ],
      "name": "Paused",
      "type": "event"
    },
    {
      "anonymous": false,
      "inputs": [
        {
          "indexed": true,
          "internalType": "bytes32",
          "name": "role",
          "type": "bytes32"
        },
        {
          "indexed": true,
          "internalType": "bytes32",
          "name": "previousAdminRole",
          "type": "bytes32"
        },
        {
          "indexed": true,
          "internalType": "bytes32",
          "name": "newAdminRole",
          "type": "bytes32"
        }
      ],
      "name": "RoleAdminChanged",
      "type": "event"
    },
    {
      "anonymous": false,
      "inputs": [
        {
          "indexed": true,
          "internalType": "bytes32",
          "name": "role",
          "type": "bytes32"
        },
        {
          "indexed": true,
          "internalType": "address",
          "name": "account",
          "type": "address"
        },
        {
          "indexed": true,
          "internalType": "address",
          "name": "sender",
          "type": "address"
        }
      ],
      "name": "RoleGranted",
      "type": "event"
    },
    {
      "anonymous": false,
      "inputs": [
        {
          "indexed": true,
          "internalType": "bytes32",
          "name": "role",
          "type": "bytes32"
        },
        {
          "indexed": true,
          "internalType": "address",
          "name": "account",
          "type": "address"
        },
        {
          "indexed": true,
          "internalType": "address",
          "name": "sender",
          "type": "address"
        }
      ],
      "name": "RoleRevoked",
      "type": "event"
    },
    {
      "anonymous": false,
      "inputs": [
        {
          "indexed": false,
          "internalType": "address",
          "name": "account",
          "type": "address"
        }
      ],
      "name": "Unpaused",
      "type": "event"
    },
    {
      "inputs": [],
      "name": "CANCELLER_ROLE",
      "outputs": [
        {
          "internalType": "bytes32",
          "name": "",
          "type": "bytes32"
        }
      ],
      "stateMutability": "view",
      "type": "function"
    },
    {
      "inputs": [],
      "name": "DEFAULT_ADMIN_ROLE",
      "outputs": [
        {
          "internalType": "bytes32",
          "name": "",
          "type": "bytes32"
        }
      ],
      "stateMutability": "view",
      "type": "function"
    },
    {
      "inputs": [],
      "name": "EXECUTOR_ROLE",
      "outputs": [
        {
          "internalType": "bytes32",
          "name": "",
          "type": "bytes32"
        }
      ],
      "stateMutability": "view",
      "type": "function"
    },
    {
      "inputs": [],
      "name": "PAUSER_ROLE",
      "outputs": [
        {
          "internalType": "bytes32",
          "name": "",
          "type": "bytes32"
        }
      ],
      "stateMutability": "view",
      "type": "function"
    },
    {
      "inputs": [],
      "name": "PROPOSER_ROLE",
      "outputs": [
        {
          "internalType": "bytes32",
          "name": "",
          "type": "bytes32"
        }
      ],
      "stateMutability": "view",
      "type": "function"
    },
    {
      "inputs": [
        {
          "internalType": "bytes32",
          "name": "id",
          "type": "bytes32"
        }
      ],
      "name": "cancel",
      "outputs": [],
      "stateMutability": "nonpayable",
      "type": "function"
    },
    {
      "inputs": [
        {
          "internalType": "address",
          "name": "target",
          "type": "address"
        },
        {
          "internalType": "uint256",
          "name": "value",
          "type": "uint256"
        },
        {
          "internalType": "bytes",
          "name": "payload",
          "type": "bytes"
        },
        {
          "internalType": "bytes32",
          "name": "predecessor",
          "type": "bytes32"
        },
        {
          "internalType": "bytes32",
          "name": "salt",
          "type": "bytes32"
        }
      ],
      "name": "execute",
      "outputs": [],
      "stateMutability": "payable",
      "type": "function"
    },
    {
      "inputs": [
        {
          "internalType": "address[]",
          "name": "targets",
          "type": "address[]"
        },
        {
          "internalType": "uint256[]",
          "name": "values",
          "type": "uint256[]"
        },
        {
          "internalType": "bytes[]",
          "name": "payloads",
          "type": "bytes[]"
        },
        {
          "internalType": "bytes32",
          "name": "predecessor",
          "type": "bytes32"
        },
        {
          "internalType": "bytes32",
          "name": "salt",
          "type": "bytes32"
        }
      ],
      "name": "executeBatch",
      "outputs": [],
      "stateMutability": "payable",
      "type": "function"
    },
    {
      "inputs": [],
      "name": "getMinDelay",
      "outputs": [
        {
          "internalType": "uint256",
          "name": "",
          "type": "uint256"
        }
      ],
      "stateMutability": "view",
      "type": "function"
    },
    {
      "inputs": [
        {
          "internalType": "bytes32",
          "name": "id",
          "type": "bytes32"
        }
      ],
      "name": "getOperationState",
      "outputs": [
        {
          "internalType": "enum TimelockController.OperationState",
          "name": "",
          "type": "uint8"
        }
      ],
      "stateMutability": "view",
      "type": "function"
    },
    {
      "inputs": [
        {
          "internalType": "bytes32",
          "name": "role",
          "type": "bytes32"
        }
      ],
      "name": "getRoleAdmin",
      "outputs": [
        {
          "internalType": "bytes32",
          "name": "",
          "type": "bytes32"
        }
      ],
      "stateMutability": "view",
      "type": "function"
    },
    {
      "inputs": [
        {
          "internalType": "bytes32",
          "name": "id",
          "type": "bytes32"
        }
      ],
      "name": "getTimestamp",
      "outputs": [
        {
          "internalType": "uint256",
          "name": "",
          "type": "uint256"
        }
      ],
      "stateMutability": "view",
      "type": "function"
    },
    {
      "inputs": [
        {
          "internalType": "bytes32",
          "name": "role",
          "type": "bytes32"
        },
        {
          "internalType": "address",
          "name": "account",
          "type": "address"
        }
      ],
      "name": "grantRole",
      "outputs": [],
      "stateMutability": "nonpayable",
      "type": "function"
    },
    {
      "inputs": [
        {
          "internalType": "bytes32",
          "name": "role",
          "type": "bytes32"
        },
        {
          "internalType": "address",
          "name": "account",
          "type": "address"
        }
      ],
      "name": "hasRole",
      "outputs": [
        {
          "internalType": "bool",
          "name": "",
          "type": "bool"
        }
      ],
      "stateMutability": "view",
      "type": "function"
    },
    {
      "inputs": [
        {
          "internalType": "address",
          "name": "target",
          "type": "address"
        },
        {
          "internalType": "uint256",
          "name": "value",
          "type": "uint256"
        },
        {
          "internalType": "bytes",
          "name": "data",
          "type": "bytes"
        },
        {
          "internalType": "bytes32",
          "name": "predecessor",
          "type": "bytes32"
        },
        {
          "internalType": "bytes32",
          "name": "salt",
          "type": "bytes32"
        }
      ],
      "name": "hashOperation",
      "outputs": [
        {
          "internalType": "bytes32",
          "name": "",
          "type": "bytes32"
        }
      ],
      "stateMutability": "pure",
      "type": "function"
    },
    {
      "inputs": [
        {
          "internalType": "address[]",
          "name": "targets",
          "type": "address[]"
        },
        {
          "internalType": "uint256[]",
          "name": "values",
          "type": "uint256[]"
        },
        {
          "internalType": "bytes[]",
          "name": "payloads",
          "type": "bytes[]"
        },
        {
          "internalType": "bytes32",
          "name": "predecessor",
          "type": "bytes32"
        },
        {
          "internalType": "bytes32",
          "name": "salt",
          "type": "bytes32"
        }
      ],
      "name": "hashOperationBatch",
      "outputs": [
        {
          "internalType": "bytes32",
          "name": "",
          "type": "bytes32"
        }
      ],
      "stateMutability": "pure",
      "type": "function"
    },
    {
      "inputs": [
        {
          "internalType": "bytes32",
          "name": "id",
          "type": "bytes32"
        }
      ],
      "name": "isOperation",
      "outputs": [
        {
          "internalType": "bool",
          "name": "",
          "type": "bool"
        }
      ],
      "stateMutability": "view",
      "type": "function"
    },
    {
      "inputs": [
        {
          "internalType": "bytes32",
          "name": "id",
          "type": "bytes32"
        }
      ],
      "name": "isOperationDone",
      "outputs": [
        {
          "internalType": "bool",
          "name": "",
          "type": "bool"
        }
      ],
      "stateMutability": "view",
      "type": "function"
    },
    {
      "inputs": [
        {
          "internalType": "bytes32",
          "name": "id",
          "type": "bytes32"
        }
      ],
      "name": "isOperationPending",
      "outputs": [
        {
          "internalType": "bool",
          "name": "",
          "type": "bool"
        }
      ],
      "stateMutability": "view",
      "type": "function"
    },
    {
      "inputs": [
        {
          "internalType": "bytes32",
          "name": "id",
          "type": "bytes32"
        }
      ],
      "name": "isOperationReady",
      "outputs": [
        {
          "internalType": "bool",
          "name": "",
          "type": "bool"
        }
      ],
      "stateMutability": "view",
      "type": "function"
    },
    {
      "inputs": [
        {
          "internalType": "address",
          "name": "",
          "type": "address"
        },
        {
          "internalType": "address",
          "name": "",
          "type": "address"
        },
        {
          "internalType": "uint256[]",
          "name": "",
          "type": "uint256[]"
        },
        {
          "internalType": "uint256[]",
          "name": "",
          "type": "uint256[]"
        },
        {
          "internalType": "bytes",
          "name": "",
          "type": "bytes"
        }
      ],
      "name": "onERC1155BatchReceived",
      "outputs": [
        {
          "internalType": "bytes4",
          "name": "",
          "type": "bytes4"
        }
      ],
      "stateMutability": "nonpayable",
      "type": "function"
    },
    {
      "inputs": [
        {
          "internalType": "address",
          "name": "",
          "type": "address"
        },
        {
          "internalType": "address",
          "name": "",
          "type": "address"
        },
        {
          "internalType": "uint256",
          "name": "",
          "type": "uint256"
        },
        {
          "internalType": "uint256",
          "name": "",
          "type": "uint256"
        },
        {
          "internalType": "bytes",
          "name": "",
          "type": "bytes"
        }
      ],
      "name": "onERC1155Received",
      "outputs": [
        {
          "internalType": "bytes4",
          "name": "",
          "type": "bytes4"
        }
      ],
      "stateMutability": "nonpayable",
      "type": "function"
    },
    {
      "inputs": [
        {
          "internalType": "address",
          "name": "",
          "type": "address"
        },
        {
          "internalType": "address",
          "name": "",
          "type": "address"
        },
        {
          "internalType": "uint256",
          "name": "",
          "type": "uint256"
        },
        {
          "internalType": "bytes",
          "name": "",
          "type": "bytes"
        }
      ],
      "name": "onERC721Received",
      "outputs": [
        {
          "internalType": "bytes4",
          "name": "",
          "type": "bytes4"
        }
      ],
      "stateMutability": "nonpayable",
      "type": "function"
    },
    {
      "inputs": [],
      "name": "pause",
      "outputs": [],
      "stateMutability": "nonpayable",
      "type": "function"
    },
    {
      "inputs": [],
      "name": "paused",
      "outputs": [
        {
          "internalType": "bool",
          "name": "",
          "type": "bool"
        }
      ],
      "stateMutability": "view",
      "type": "function"
    },
    {
      "inputs": [
        {
          "internalType": "bytes32",
          "name": "role",
          "type": "bytes32"
        },
        {
          "internalType": "address",
          "name": "callerConfirmation",
          "type": "address"
        }
      ],
      "name": "renounceRole",
      "outputs": [],
      "stateMutability": "nonpayable",
      "type": "function"
    },
    {
      "inputs": [
        {
          "internalType": "bytes32",
          "name": "role",
          "type": "bytes32"
        },
        {
          "internalType": "address",
          "name": "account",
          "type": "address"
        }
      ],
      "name": "revokeRole",
      "outputs": [],
      "stateMutability": "nonpayable",
      "type": "function"
    },
    {
      "inputs": [
        {
          "internalType": "address",
          "name": "target",
          "type": "address"
        },
        {
          "internalType": "uint256",
          "name": "value",
          "type": "uint256"
        },
        {
          "internalType": "bytes",
          "name": "data",
          "type": "bytes"
        },
        {
          "internalType": "bytes32",
          "name": "predecessor",
          "type": "bytes32"
        },
        {
          "internalType": "bytes32",
          "name": "salt",
          "type": "bytes32"
        },
        {
          "internalType": "uint256",
          "name": "delay",
          "type": "uint256"
        }
      ],
      "name": "schedule",
      "outputs": [],
      "stateMutability": "nonpayable",
      "type": "function"
    },
    {
      "inputs": [
        {
          "internalType": "address[]",
          "name": "targets",
          "type": "address[]"
        },
        {
          "internalType": "uint256[]",
          "name": "values",
          "type": "uint256[]"
        },
        {
          "internalType": "bytes[]",
          "name": "payloads",
          "type": "bytes[]"
        },
        {
          "internalType": "bytes32",
          "name": "predecessor",
          "type": "bytes32"
        },
        {
          "internalType": "bytes32",
          "name": "salt",
          "type": "bytes32"
        },
        {
          "internalType": "uint256",
          "name": "delay",
          "type": "uint256"
        }
      ],
      "name": "scheduleBatch",
      "outputs": [],
      "stateMutability": "nonpayable",
      "type": "function"
    },
    {
      "inputs": [
        {
          "internalType": "bytes4",
          "name": "interfaceId",
          "type": "bytes4"
        }
      ],
      "name": "supportsInterface",
      "outputs": [
        {
          "internalType": "bool",
          "name": "",
          "type": "bool"
        }
      ],
      "stateMutability": "view",
      "type": "function"
    },
    {
      "inputs": [],
      "name": "unpause",
      "outputs": [],
      "stateMutability": "nonpayable",
      "type": "function"
    },
    {
      "inputs": [
        {
          "internalType": "uint256",
          "name": "newDelay",
          "type": "uint256"
        }
      ],
      "name": "updateDelay",
      "outputs": [],
      "stateMutability": "nonpayable",
      "type": "function"
    },
    {
      "stateMutability": "payable",
      "type": "receive"
    }
  ],
  "bytecode": "0x608060405234801561000f575f5ffd5b50604051611f4f380380611f4f83398101604081905261002e91610330565b8484848461003c5f306101b5565b506001600160a01b03811615610058576100565f826101b5565b505b5f5b83518110156100ec576100ac7fb09aa5aeb3702cfd50b6b62bc4532604938f21248a27a1d5ca736082b6819cc1858381518110610099576100996103bf565b60200260200101516101b560201b60201c565b506100e37ffd643c72710c63c0180259aba6b2d05451e3591a24e58b62239378085726f783858381518110610099576100996103bf565b5060010161005a565b505f5b82518110156101375761012e7fd8aa0f3194971a2a116679f7c2090f6939c8d4e01a2a8d7e41d55e5351469e63848381518110610099576100996103bf565b506001016100ef565b506002849055604080515f8152602081018690527f11c24f4ead16507c69ac467fbd5e4eed5fb5c699626d2cc6d66421df253886d5910160405180910390a1505050506101aa7f65d7a28e3265b37a6474929f336521b332c1681b933f6cb9f3376673440d862a826101b560201b60201c565b5050505050506103d3565b5f828152602081815260408083206001600160a01b038516845290915281205460ff16610255575f838152602081815260408083206001600160a01b03861684529091529020805460ff1916600117905561020d3390565b6001600160a01b0316826001600160a01b0316847f2f8788117e7eff1d82e926ec794901d17c78024a50270940304540a733656f0d60405160405180910390a4506001610258565b505f5b92915050565b634e487b7160e01b5f52604160045260245ffd5b80516001600160a01b0381168114610288575f5ffd5b919050565b5f82601f83011261029c575f5ffd5b81516001600160401b038111156102b5576102b561025e565b604051600582901b90603f8201601f191681016001600160401b03811182821017156102e3576102e361025e565b604052918252602081850181019290810186841115610300575f5ffd5b6020860192505b838310156103265761031883610272565b815260209283019201610307565b5095945050505050565b5f5f5f5f5f60a08688031215610344575f5ffd5b855160208701519095506001600160401b03811115610361575f5ffd5b61036d8882890161028d565b604088015190955090506001600160401b0381111561038a575f5ffd5b6103968882890161028d565b9350506103a560608701610272565b91506103b360808701610272565b90509295509295909350565b634e487b7160e01b5f52603260045260245ffd5b611b6f806103e05f395ff3fe6080604052600436106101de575f3560e01c80638065657f116100fd578063bc197c8111610092578063e38335e511610062578063e38335e5146105d0578063e63ab1e9146105e3578063f23a6e6114610616578063f27a0c9214610641575f5ffd5b8063bc197c811461053c578063c4d252f514610567578063d45c443514610586578063d547741f146105b1575f5ffd5b806391d14854116100cd57806391d14854146104b8578063a217fddf146104d7578063b08e51c0146104ea578063b1c5f4271461051d575f5ffd5b80638065657f146104335780638456cb59146104525780638f2a0bb0146104665780638f61f4f514610485575f5ffd5b80632f2ff15d11610173578063584b153e11610143578063584b153e146103b25780635c975abb146103d157806364d62353146103e85780637958004c14610407575f5ffd5b80632f2ff15d1461034157806331d507501461036057806336568abe1461037f5780633f4ba83a1461039e575f5ffd5b806313bc9f20116101ae57806313bc9f2014610292578063150b7a02146102b1578063248a9ca3146102f45780632ab0f52914610322575f5ffd5b806301d5062a146101e957806301ffc9a71461020a57806307bd02651461023e578063134008d31461027f575f5ffd5b366101e557005b5f5ffd5b3480156101f4575f5ffd5b5061020861020336600461133c565b610655565b005b348015610215575f5ffd5b506102296102243660046113aa565b610729565b60405190151581526020015b60405180910390f35b348015610249575f5ffd5b506102717fd8aa0f3194971a2a116679f7c2090f6939c8d4e01a2a8d7e41d55e5351469e6381565b604051908152602001610235565b61020861028d3660046113d1565b610739565b34801561029d575f5ffd5b506102296102ac366004611437565b6107eb565b3480156102bc575f5ffd5b506102db6102cb3660046114fd565b630a85bd0160e11b949350505050565b6040516001600160e01b03199091168152602001610235565b3480156102ff575f5ffd5b5061027161030e366004611437565b5f9081526020819052604090206001015490565b34801561032d575f5ffd5b5061022961033c366004611437565b610810565b34801561034c575f5ffd5b5061020861035b366004611560565b610818565b34801561036b575f5ffd5b5061022961037a366004611437565b610842565b34801561038a575f5ffd5b50610208610399366004611560565b610866565b3480156103a9575f5ffd5b5061020861089e565b3480156103bd575f5ffd5b506102296103cc366004611437565b6108d3565b3480156103dc575f5ffd5b5060035460ff16610229565b3480156103f3575f5ffd5b50610208610402366004611437565b610918565b348015610412575f5ffd5b50610426610421366004611437565b61098b565b604051610235919061159e565b34801561043e575f5ffd5b5061027161044d3660046113d1565b6109d3565b34801561045d575f5ffd5b50610208610a11565b348015610471575f5ffd5b50610208610480366004611604565b610a43565b348015610490575f5ffd5b506102717fb09aa5aeb3702cfd50b6b62bc4532604938f21248a27a1d5ca736082b6819cc181565b3480156104c3575f5ffd5b506102296104d2366004611560565b610bcf565b3480156104e2575f5ffd5b506102715f81565b3480156104f5575f5ffd5b506102717ffd643c72710c63c0180259aba6b2d05451e3591a24e58b62239378085726f78381565b348015610528575f5ffd5b506102716105373660046116b6565b610bf7565b348015610547575f5ffd5b506102db6105563660046117df565b63bc197c8160e01b95945050505050565b348015610572575f5ffd5b50610208610581366004611437565b610c3b565b348015610591575f5ffd5b506102716105a0366004611437565b5f9081526001602052604090205490565b3480156105bc575f5ffd5b506102086105cb366004611560565b610ce5565b6102086105de3660046116b6565b610d09565b3480156105ee575f5ffd5b506102717f65d7a28e3265b37a6474929f336521b332c1681b933f6cb9f3376673440d862a81565b348015610621575f5ffd5b506102db61063036600461188b565b63f23a6e6160e01b95945050505050565b34801561064c575f5ffd5b50600254610271565b7fb09aa5aeb3702cfd50b6b62bc4532604938f21248a27a1d5ca736082b6819cc161067f81610e8a565b5f61068e8989898989896109d3565b905061069a8184610e94565b5f817f4cf4410cc57040e44862ef0f45f3dd5a5e02db8eb8add648d4b0e236f1d07dca8b8b8b8b8b8a6040516106d596959493929190611906565b60405180910390a3831561071e57807f20fda5fd27a1ea7bf5b9567f143ac5470bb059374a27e8f67cb44f946f6d03878560405161071591815260200190565b60405180910390a25b505050505050505050565b5f61073382610f25565b92915050565b7fd8aa0f3194971a2a116679f7c2090f6939c8d4e01a2a8d7e41d55e5351469e63610764815f610bcf565b610772576107728133610f49565b5f6107818888888888886109d3565b905061078d8185610f86565b61079988888888610fd4565b5f817fc2617efa69bab66782fa219543714338489c4e9e178271560a91b82c3f612b588a8a8a8a6040516107d09493929190611942565b60405180910390a36107e181611048565b5050505050505050565b5f60025b6107f88361098b565b60038111156108095761080961158a565b1492915050565b5f60036107ef565b5f8281526020819052604090206001015461083281610e8a565b61083c8383611073565b50505050565b5f8061084d8361098b565b600381111561085e5761085e61158a565b141592915050565b6001600160a01b038116331461088f5760405163334bd91960e11b815260040160405180910390fd5b6108998282611102565b505050565b7f65d7a28e3265b37a6474929f336521b332c1681b933f6cb9f3376673440d862a6108c881610e8a565b6108d061116b565b50565b5f5f6108de8361098b565b905060018160038111156108f4576108f461158a565b14806109115750600281600381111561090f5761090f61158a565b145b9392505050565b333081146109495760405163e2850c5960e01b81526001600160a01b03821660048201526024015b60405180910390fd5b60025460408051918252602082018490527f11c24f4ead16507c69ac467fbd5e4eed5fb5c699626d2cc6d66421df253886d5910160405180910390a150600255565b5f81815260016020526040812054805f036109a857505f92915050565b600181036109b95750600392915050565b428111156109ca5750600192915050565b50600292915050565b5f8686868686866040516020016109ef96959493929190611906565b6040516020818303038152906040528051906020012090509695505050505050565b7f65d7a28e3265b37a6474929f336521b332c1681b933f6cb9f3376673440d862a610a3b81610e8a565b6108d06111bd565b7fb09aa5aeb3702cfd50b6b62bc4532604938f21248a27a1d5ca736082b6819cc1610a6d81610e8a565b8887141580610a7c5750888514155b15610aae576040516001624fcdef60e01b03198152600481018a90526024810186905260448101889052606401610940565b5f610abf8b8b8b8b8b8b8b8b610bf7565b9050610acb8184610e94565b5f5b8a811015610b805780827f4cf4410cc57040e44862ef0f45f3dd5a5e02db8eb8add648d4b0e236f1d07dca8e8e85818110610b0a57610b0a611969565b9050602002016020810190610b1f919061197d565b8d8d86818110610b3157610b31611969565b905060200201358c8c87818110610b4a57610b4a611969565b9050602002810190610b5c9190611996565b8c8b604051610b7096959493929190611906565b60405180910390a3600101610acd565b508315610bc257807f20fda5fd27a1ea7bf5b9567f143ac5470bb059374a27e8f67cb44f946f6d038785604051610bb991815260200190565b60405180910390a25b5050505050505050505050565b5f918252602082815260408084206001600160a01b0393909316845291905290205460ff1690565b5f8888888888888888604051602001610c17989796959493929190611a6c565b60405160208183030381529060405280519060200120905098975050505050505050565b7ffd643c72710c63c0180259aba6b2d05451e3591a24e58b62239378085726f783610c6581610e8a565b610c6e826108d3565b610caa5781610c7d60026111fa565b610c8760016111fa565b604051635ead8eb560e01b81526004810193909352176024820152604401610940565b5f828152600160205260408082208290555183917fbaa1eb22f2a492ba1a5fea61b8df4d27c6c8b5f3971e63bb58fa14ff72eedb7091a25050565b5f82815260208190526040902060010154610cff81610e8a565b61083c8383611102565b7fd8aa0f3194971a2a116679f7c2090f6939c8d4e01a2a8d7e41d55e5351469e63610d34815f610bcf565b610d4257610d428133610f49565b8786141580610d515750878414155b15610d83576040516001624fcdef60e01b03198152600481018990526024810185905260448101879052606401610940565b5f610d948a8a8a8a8a8a8a8a610bf7565b9050610da08185610f86565b5f5b89811015610e74575f8b8b83818110610dbd57610dbd611969565b9050602002016020810190610dd2919061197d565b90505f8a8a84818110610de757610de7611969565b905060200201359050365f8a8a86818110610e0457610e04611969565b9050602002810190610e169190611996565b91509150610e2684848484610fd4565b84867fc2617efa69bab66782fa219543714338489c4e9e178271560a91b82c3f612b5886868686604051610e5d9493929190611942565b60405180910390a350505050806001019050610da2565b50610e7e81611048565b50505050505050505050565b6108d08133610f49565b610e9d82610842565b15610ece5781610eac5f6111fa565b604051635ead8eb560e01b815260048101929092526024820152604401610940565b5f610ed860025490565b905080821015610f0557604051635433660960e01b81526004810183905260248101829052604401610940565b610f0f8242611b0b565b5f93845260016020526040909320929092555050565b5f6001600160e01b03198216630271189760e51b148061073357506107338261121c565b610f538282610bcf565b610f825760405163e2517d3f60e01b81526001600160a01b038216600482015260248101839052604401610940565b5050565b610f8f826107eb565b610f9e5781610eac60026111fa565b8015801590610fb35750610fb181610810565b155b15610f825760405163121534c360e31b815260048101829052602401610940565b5f5f856001600160a01b0316858585604051610ff1929190611b2a565b5f6040518083038185875af1925050503d805f811461102b576040519150601f19603f3d011682016040523d82523d5f602084013e611030565b606091505b509150915061103f8282611250565b50505050505050565b611051816107eb565b6110605780610eac60026111fa565b5f90815260016020819052604090912055565b5f61107e8383610bcf565b6110fb575f838152602081815260408083206001600160a01b03861684529091529020805460ff191660011790556110b33390565b6001600160a01b0316826001600160a01b0316847f2f8788117e7eff1d82e926ec794901d17c78024a50270940304540a733656f0d60405160405180910390a4506001610733565b505f610733565b5f61110d8383610bcf565b156110fb575f838152602081815260408083206001600160a01b0386168085529252808320805460ff1916905551339286917ff6391f5c32d9c69d2a47ea670b442974b53935d1edc7fd64eb21e047a839171b9190a4506001610733565b61117361126c565b6003805460ff191690557f5db9ee0a495bf2e6ff9c91a7834c1ba4fdd244a5e8aa4e537bd38aeae4b073aa335b6040516001600160a01b03909116815260200160405180910390a1565b6111c5611291565b6003805460ff191660011790557f62e78cea01bee320cd4e420270b5ea74000d11b0c9f74754ebdbfc544b05a2586111a03390565b5f81600381111561120d5761120d61158a565b600160ff919091161b92915050565b5f6001600160e01b03198216637965db0b60e01b148061073357506301ffc9a760e01b6001600160e01b0319831614610733565b60608261126557611260826112b5565b610733565b5080610733565b60035460ff1661128f57604051638dfc202b60e01b815260040160405180910390fd5b565b60035460ff161561128f5760405163d93c066560e01b815260040160405180910390fd5b8051156112c457805160208201fd5b60405163d6bda27560e01b815260040160405180910390fd5b80356001600160a01b03811681146112f3575f5ffd5b919050565b5f5f83601f840112611308575f5ffd5b5081356001600160401b0381111561131e575f5ffd5b602083019150836020828501011115611335575f5ffd5b9250929050565b5f5f5f5f5f5f5f60c0888a031215611352575f5ffd5b61135b886112dd565b96506020880135955060408801356001600160401b0381111561137c575f5ffd5b6113888a828b016112f8565b989b979a50986060810135976080820135975060a09091013595509350505050565b5f602082840312156113ba575f5ffd5b81356001600160e01b031981168114610911575f5ffd5b5f5f5f5f5f5f60a087890312156113e6575f5ffd5b6113ef876112dd565b95506020870135945060408701356001600160401b03811115611410575f5ffd5b61141c89828a016112f8565b979a9699509760608101359660809091013595509350505050565b5f60208284031215611447575f5ffd5b5035919050565b634e487b7160e01b5f52604160045260245ffd5b604051601f8201601f191681016001600160401b038111828210171561148a5761148a61144e565b604052919050565b5f82601f8301126114a1575f5ffd5b81356001600160401b038111156114ba576114ba61144e565b6114cd601f8201601f1916602001611462565b8181528460208386010111156114e1575f5ffd5b816020850160208301375f918101602001919091529392505050565b5f5f5f5f60808587031215611510575f5ffd5b611519856112dd565b9350611527602086016112dd565b92506040850135915060608501356001600160401b03811115611548575f5ffd5b61155487828801611492565b91505092959194509250565b5f5f60408385031215611571575f5ffd5b82359150611581602084016112dd565b90509250929050565b634e487b7160e01b5f52602160045260245ffd5b60208101600483106115be57634e487b7160e01b5f52602160045260245ffd5b91905290565b5f5f83601f8401126115d4575f5ffd5b5081356001600160401b038111156115ea575f5ffd5b6020830191508360208260051b8501011115611335575f5ffd5b5f5f5f5f5f5f5f5f5f60c08a8c03121561161c575f5ffd5b89356001600160401b03811115611631575f5ffd5b61163d8c828d016115c4565b909a5098505060208a01356001600160401b0381111561165b575f5ffd5b6116678c828d016115c4565b90985096505060408a01356001600160401b03811115611685575f5ffd5b6116918c828d016115c4565b9a9d999c50979a969997986060880135976080810135975060a0013595509350505050565b5f5f5f5f5f5f5f5f60a0898b0312156116cd575f5ffd5b88356001600160401b038111156116e2575f5ffd5b6116ee8b828c016115c4565b90995097505060208901356001600160401b0381111561170c575f5ffd5b6117188b828c016115c4565b90975095505060408901356001600160401b03811115611736575f5ffd5b6117428b828c016115c4565b999c989b509699959896976060870135966080013595509350505050565b5f82601f83011261176f575f5ffd5b81356001600160401b038111156117885761178861144e565b8060051b61179860208201611462565b918252602081850181019290810190868411156117b3575f5ffd5b6020860192505b838310156117d55782358252602092830192909101906117ba565b9695505050505050565b5f5f5f5f5f60a086880312156117f3575f5ffd5b6117fc866112dd565b945061180a602087016112dd565b935060408601356001600160401b03811115611824575f5ffd5b61183088828901611760565b93505060608601356001600160401b0381111561184b575f5ffd5b61185788828901611760565b92505060808601356001600160401b03811115611872575f5ffd5b61187e88828901611492565b9150509295509295909350565b5f5f5f5f5f60a0868803121561189f575f5ffd5b6118a8866112dd565b94506118b6602087016112dd565b9350604086013592506060860135915060808601356001600160401b03811115611872575f5ffd5b81835281816020850137505f828201602090810191909152601f909101601f19169091010190565b60018060a01b038716815285602082015260a060408201525f61192d60a0830186886118de565b60608301949094525060800152949350505050565b60018060a01b0385168152836020820152606060408201525f6117d56060830184866118de565b634e487b7160e01b5f52603260045260245ffd5b5f6020828403121561198d575f5ffd5b610911826112dd565b5f5f8335601e198436030181126119ab575f5ffd5b8301803591506001600160401b038211156119c4575f5ffd5b602001915036819003821315611335575f5ffd5b5f8383855260208501945060208460051b820101835f5b86811015611a6057838303601f19018852813536879003601e19018112611a14575f5ffd5b86016020810190356001600160401b03811115611a2f575f5ffd5b803603821315611a3d575f5ffd5b611a488582846118de565b60209a8b019a909550939093019250506001016119ef565b50909695505050505050565b60a080825281018890525f8960c08301825b8b811015611aac576001600160a01b03611a97846112dd565b16825260209283019290910190600101611a7e565b5083810360208501528881526001600160fb1b03891115611acb575f5ffd5b8860051b9150818a60208301370182810360209081016040850152611af390820187896119d8565b60608401959095525050608001529695505050505050565b8082018082111561073357634e487b7160e01b5f52601160045260245ffd5b818382375f910190815291905056fea264697066735822122094b1a1ce26c20f9022c75df5b4936dfcf205cbde1624ad1c99945cc2581f35ec64736f6c634300081b0033",
  "linkReferences": {},
  "deployedLinkReferences": {}
}