{
  "_format": "hh-sol-artifact-1",
  "contractName": "MyDAOGovernor",
  "sourceName": "contracts/MyDAOGovernor.sol",
  "abi": [
    {
      "inputs": [
        {
          "internalType": "contract IVotes",
          "name": "_token",
          "type": "address"
        },
        {
          "internalType": "contract TimelockController",
          "name": "_timelock",
          "type": "address"
        },
        {
          "internalType": "uint48",
          "name": "_votingDelay",
          "type": "uint48"
        },
        {
          "internalType": "uint32",
          "name": "_votingPeriod",
          "type": "uint32"
        },
        {
          "internalType": "uint256",
          "name": "_proposalThreshold",
          "type": "uint256"
        },
        {
          "internalType": "uint256",
          "name": "_quorumNumerator",
          "type": "uint256"
        },
        {
          "internalType": "address",
          "name": "_pauser",
          "type": "address"
        }
      ],
      "stateMutability": "nonpayable",
      "type": "constructor"
    },
    {
      "inputs": [],
      "name": "AccessControlBadConfirmation",
      "type": "error"
    },
    {
      "inputs": [
        {
          "internalType": "address",
          "name": "account",
          "type": "address"
        },
        {
          "internalType": "bytes32",
          "name": "neededRole",
          "type": "bytes32"
        }
      ],
      "name": "AccessControlUnauthorizedAccount",
      "type": "error"
    },
    {
      "inputs": [],
      "name": "CheckpointUnorderedInsertion",
      "type": "error"
    },
    {
      "inputs": [],
      "name": "EnforcedPause",
      "type": "error"
    },
    {
      "inputs": [],
      "name": "ExpectedPause",
      "type": "error"
    },
    {
      "inputs": [],
      "name": "FailedCall",
      "type": "error"
    },
    {
      "inputs": [
        {
          "internalType": "address",
          "name": "voter",
          "type": "address"
        }
      ],
      "name": "GovernorAlreadyCastVote",
      "type": "error"
    },
    {
      "inputs": [
        {
          "internalType": "uint256",
          "name": "proposalId",
          "type": "uint256"
        }
      ],
      "name": "GovernorAlreadyQueuedProposal",
      "type": "error"
    },
    {
      "inputs": [],
      "name": "GovernorDisabledDeposit",
      "type": "error"
    },
    {
      "inputs": [
        {
          "internalType": "address",
          "name": "proposer",
          "type": "address"
        },
        {
          "internalType": "uint256",
          "name": "votes",
          "type": "uint256"
        },
        {
          "internalType": "uint256",
          "name": "threshold",
          "type": "uint256"
        }
      ],
      "name": "GovernorInsufficientProposerVotes",
      "type": "error"
    },
    {
      "inputs": [
        {
          "internalType": "uint256",
          "name": "targets",
          "type": "uint256"
        },
        {
          "internalType": "uint256",
          "name": "calldatas",
          "type": "uint256"
        },
        {
          "internalType": "uint256",
          "name": "values",
          "type": "uint256"
        }
      ],
      "name": "GovernorInvalidProposalLength",
      "type": "error"
    },
    {
      "inputs": [
        {
          "internalType": "uint256",
          "name": "quorumNumerator",
          "type": "uint256"
        },
        {
          "internalType": "uint256",
          "name": "quorumDenominator",
          "type": "uint256"
        }
      ],
      "name": "GovernorInvalidQuorumFraction",
      "type": "error"
    },
    {
      "inputs": [
        {
          "internalType": "address",
          "name": "voter",
          "type": "address"
        }
      ],
      "name": "GovernorInvalidSignature",
      "type": "error"
    },
    {
      "inputs": [],
      "name": "GovernorInvalidVoteParams",
      "type": "error"
    },
    {
      "inputs": [],
      "name": "GovernorInvalidVoteType",
      "type": "error"
    },
    {
      "inputs": [
        {
          "internalType": "uint256",
          "name": "votingPeriod",
          "type": "uint256"
        }
      ],
      "name": "GovernorInvalidVotingPeriod",
      "type": "error"
    },
    {
      "inputs": [
        {
          "internalType": "uint256",
          "name": "proposalId",
          "type": "uint256"
        }
      ],
      "name": "GovernorNonexistentProposal",
      "type": "error"
    },
    {
      "inputs": [
        {
          "internalType": "uint256",
          "name": "proposalId",
          "type": "uint256"
        }
      ],
      "name": "GovernorNotQueuedProposal",
      "type": "error"
    },
    {
      "inputs": [
        {
          "internalType": "address",
          "name": "account",
          "type": "address"
        }
      ],
      "name": "GovernorOnlyExecutor",
      "type": "error"
    },
    {
      "inputs": [],
      "name": "GovernorQueueNotImplemented",
      "type": "error"
    },
    {
      "inputs": [
        {
          "internalType": "address",
          "name": "proposer",
          "type": "address"
        }
      ],
      "name": "GovernorRestrictedProposer",
      "type": "error"
    },
    {
      "inputs": [
        {
          "internalType": "uint256",
          "name": "proposalId",
          "type": "uint256"
        },
        {
          "internalType": "address",
          "name": "account",
          "type": "address"
        }
      ],
      "name": "GovernorUnableToCancel",
      "type": "error"
    },
    {
      "inputs": [
        {
          "internalType": "uint256",
          "name": "proposalId",
          "type": "uint256"
        },
        {
          "internalType": "enum IGovernor.ProposalState",
          "name": "current",
          "type": "uint8"
        },
        {
          "internalType": "bytes32",
          "name": "expectedStates",
          "type": "bytes32"
        }
      ],
      "name": "GovernorUnexpectedProposalState",
      "type": "error"
    },
    {
      "inputs": [
        {
          "internalType": "address",
          "name": "account",
          "type": "address"
        },
        {
          "internalType": "uint256",
          "name": "currentNonce",
          "type": "uint256"
        }
      ],
      "name": "InvalidAccountNonce",
      "type": "error"
    },
    {
      "inputs": [],
      "name": "InvalidShortString",
      "type": "error"
    },
    {
      "inputs": [
        {
          "internalType": "uint8",
          "name": "bits",
          "type": "uint8"
        },
        {
          "internalType": "uint256",
          "name": "value",
          "type": "uint256"
        }
      ],
      "name": "SafeCastOverflowedUintDowncast",
      "type": "error"
    },
    {
      "inputs": [
        {
          "internalType": "string",
          "name": "str",
          "type": "string"
        }
      ],
      "name": "StringTooLong",
      "type": "error"
    },
    {
      "anonymous": false,
      "inputs": [],
      "name": "EIP712DomainChanged",
      "type": "event"
    },
    {
      "anonymous": false,
      "inputs": [
        {
          "indexed": false,
          "internalType": "uint64",
          "name": "oldVoteExtension",
          "type": "uint64"
        },
        {
          "indexed": false,
          "internalType": "uint64",
          "name": "newVoteExtension",
          "type": "uint64"
        }
      ],
      "name": "LateQuorumVoteExtensionSet",
      "type": "event"
    },
    {
      "anonymous": false,
      "inputs": [
        {
          "indexed": false,
          "internalType": "address",
          "name": "account",
          "type": "address"
        }
      ],
      "name": "Paused",
      "type": "event"
    },
    {
      "anonymous": false,
      "inputs": [
        {
          "indexed": false,
          "internalType": "uint256",
          "name": "proposalId",
          "type": "uint256"
        }
      ],
      "name": "ProposalCanceled",
      "type": "event"
    },
    {
      "anonymous": false,
      "inputs": [
        {
          "indexed": false,
          "internalType": "uint256",
          "name": "proposalId",
          "type": "uint256"
        },
        {
          "indexed": false,
          "internalType": "address",
          "name": "proposer",
          "type": "address"
        },
        {
          "indexed": false,
          "internalType": "address[]",
          "name": "targets",
          "type": "address[]"
        },
        {
          "indexed": false,
          "internalType": "uint256[]",
          "name": "values",
          "type": "uint256[]"
        },
        {
          "indexed": false,
          "internalType": "string[]",
          "name": "signatures",
          "type": "string[]"
        },
        {
          "indexed": false,
          "internalType": "bytes[]",
          "name": "calldatas",
          "type": "bytes[]"
        },
        {
          "indexed": false,
          "internalType": "uint256",
          "name": "voteStart",
          "type": "uint256"
        },
        {
          "indexed": false,
          "internalType": "uint256",
          "name": "voteEnd",
          "type": "uint256"
        },
        {
          "indexed": false,
          "internalType": "string",
          "name": "description",
          "type": "string"
        }
      ],
      "name": "ProposalCreated",
      "type": "event"
    },
    {
      "anonymous": false,
      "inputs": [
        {
          "indexed": false,
          "internalType": "uint256",
          "name": "proposalId",
          "type": "uint256"
        }
      ],
      "name": "ProposalExecuted",
      "type": "event"
    },
    {
      "anonymous": false,
      "inputs": [
        {
          "indexed": true,
          "internalType": "uint256",
          "name": "proposalId",
          "type": "uint256"
        },
        {
          "indexed": false,
          "internalType": "uint64",
          "name": "extendedDeadline",
          "type": "uint64"
        }
      ],
      "name": "ProposalExtended",
      "type": "event"
    },
    {
      "anonymous": false,
      "inputs": [
        {
          "indexed": false,
          "internalType": "uint256",
          "name": "proposalId",
          "type": "uint256"
        },
        {
          "indexed": false,
          "internalType": "uint256",
          "name": "etaSeconds",
          "type": "uint256"
        }
      ],
      "name": "ProposalQueued",
      "type": "event"
    },
    {
      "anonymous": false,
      "inputs": [
        {
          "indexed": false,
          "internalType": "uint256",
          "name": "oldProposalThreshold",
          "type": "uint256"
        },
        {
          "indexed": false,
          "internalType": "uint256",
          "name": "newProposalThreshold",
          "type": "uint256"
        }
      ],
      "name": "ProposalThresholdSet",
      "type": "event"
    },
    {
      "anonymous": false,
      "inputs": [
        {
          "indexed": false,
          "internalType": "uint256",
          "name": "oldQuorumNumerator",
          "type": "uint256"
        },
        {
          "indexed": false,
          "internalType": "uint256",
          "name": "newQuorumNumerator",
          "type": "uint256"
        }
      ],
      "name": "QuorumNumeratorUpdated",
      "type": "event"
    },
    {
      "anonymous": false,
      "inputs": [
        {
          "indexed": true,
          "internalType": "bytes32",
          "name": "role",
          "type": "bytes32"
        },
        {
          "indexed": true,
          "internalType": "bytes32",
          "name": "previousAdminRole",
          "type": "bytes32"
        },
        {
          "indexed": true,
          "internalType": "bytes32",
          "name": "newAdminRole",
          "type": "bytes32"
        }
      ],
      "name": "RoleAdminChanged",
      "type": "event"
    },
    {
      "anonymous": false,
      "inputs": [
        {
          "indexed": true,
          "internalType": "bytes32",
          "name": "role",
          "type": "bytes32"
        },
        {
          "indexed": true,
          "internalType": "address",
          "name": "account",
          "type": "address"
        },
        {
          "indexed": true,
          "internalType": "address",
          "name": "sender",
          "type": "address"
        }
      ],
      "name": "RoleGranted",
      "type": "event"
    },
    {
      "anonymous": false,
      "inputs": [
        {
          "indexed": true,
          "internalType": "bytes32",
          "name": "role",
          "type": "bytes32"
        },
        {
          "indexed": true,
          "internalType": "address",
          "name": "account",
          "type": "address"
        },
        {
          "indexed": true,
          "internalType": "address",
          "name": "sender",
          "type": "address"
        }
      ],
      "name": "RoleRevoked",
      "type": "event"
    },
    {
      "anonymous": false,
      "inputs": [
        {
          "indexed": false,
          "internalType": "address",
          "name": "oldTimelock",
          "type": "address"
        },
        {
          "indexed": false,
          "internalType": "address",
          "name": "newTimelock",
          "type": "address"
        }
      ],
      "name": "TimelockChange",
      "type": "event"
    },
    {
      "anonymous": false,
      "inputs": [
        {
          "indexed": false,
          "internalType": "address",
          "name": "account",
          "type": "address"
        }
      ],
      "name": "Unpaused",
      "type": "event"
    },
    {
      "anonymous": false,
      "inputs": [
        {
          "indexed": true,
          "internalType": "address",
          "name": "voter",
          "type": "address"
        },
        {
          "indexed": false,
          "internalType": "uint256",
          "name": "proposalId",
          "type": "uint256"
        },
        {
          "indexed": false,
          "internalType": "uint8",
          "name": "support",
          "type": "uint8"
        },
        {
          "indexed": false,
          "internalType": "uint256",
          "name": "weight",
          "type": "uint256"
        },
        {
          "indexed": false,
          "internalType": "string",
          "name": "reason",
          "type": "string"
        }
      ],
      "name": "VoteCast",
      "type": "event"
    },
    {
      "anonymous": false,
      "inputs": [
        {
          "indexed": true,
          "internalType": "address",
          "name": "voter",
          "type": "address"
        },
        {
          "indexed": false,
          "internalType": "uint256",
          "name": "proposalId",
          "type": "uint256"
        },
        {
          "indexed": false,
          "internalType": "uint8",
          "name": "support",
          "type": "uint8"
        },
        {
          "indexed": false,
          "internalType": "uint256",
          "name": "weight",
          "type": "uint256"
        },
        {
          "indexed": false,
          "internalType": "string",
          "name": "reason",
          "type": "string"
        },
        {
          "indexed": false,
          "internalType": "bytes",
          "name": "params",
          "type": "bytes"
        }
      ],
      "name": "VoteCastWithParams",
      "type": "event"
    },
    {
      "anonymous": false,
      "inputs": [
        {
          "indexed": false,
          "internalType": "uint256",
          "name": "oldVotingDelay",
          "type": "uint256"
        },
        {
          "indexed": false,
          "internalType": "uint256",
          "name": "newVotingDelay",
          "type": "uint256"
        }
      ],
      "name": "VotingDelaySet",
      "type": "event"
    },
    {
      "anonymous": false,
      "inputs": [
        {
          "indexed": false,
          "internalType": "uint256",
          "name": "oldVotingPeriod",
          "type": "uint256"
        },
        {
          "indexed": false,
          "internalType": "uint256",
          "name": "newVotingPeriod",
          "type": "uint256"
        }
      ],
      "name": "VotingPeriodSet",
      "type": "event"
    },
    {
      "inputs": [],
      "name": "BALLOT_TYPEHASH",
      "outputs": [
        {
          "internalType": "bytes32",
          "name": "",
          "type": "bytes32"
        }
      ],
      "stateMutability": "view",
      "type": "function"
    },
    {
      "inputs": [],
      "name": "CLOCK_MODE",
      "outputs": [
        {
          "internalType": "string",
          "name": "",
          "type": "string"
        }
      ],
      "stateMutability": "view",
      "type": "function"
    },
    {
      "inputs": [],
      "name": "COUNTING_MODE",
      "outputs": [
        {
          "internalType": "string",
          "name": "",
          "type": "string"
        }
      ],
      "stateMutability": "pure",
      "type": "function"
    },
    {
      "inputs": [],
      "name": "DEFAULT_ADMIN_ROLE",
      "outputs": [
        {
          "internalType": "bytes32",
          "name": "",
          "type": "bytes32"
        }
      ],
      "stateMutability": "view",
      "type": "function"
    },
    {
      "inputs": [],
      "name": "EXECUTION_GRACE_PERIOD",
      "outputs": [
        {
          "internalType": "uint256",
          "name": "",
          "type": "uint256"
        }
      ],
      "stateMutability": "view",
      "type": "function"
    },
    {
      "inputs": [],
      "name": "EXTENDED_BALLOT_TYPEHASH",
      "outputs": [
        {
          "internalType": "bytes32",
          "name": "",
          "type": "bytes32"
        }
      ],
      "stateMutability": "view",
      "type": "function"
    },
    {
      "inputs": [],
      "name": "PAUSER_ROLE",
      "outputs": [
        {
          "internalType": "bytes32",
          "name": "",
          "type": "bytes32"
        }
      ],
      "stateMutability": "view",
      "type": "function"
    },
    {
      "inputs": [],
      "name": "VOTING_EXTENSION",
      "outputs": [
        {
          "internalType": "uint48",
          "name": "",
          "type": "uint48"
        }
      ],
      "stateMutability": "view",
      "type": "function"
    },
    {
      "inputs": [
        {
          "internalType": "address[]",
          "name": "targets",
          "type": "address[]"
        },
        {
          "internalType": "uint256[]",
          "name": "values",
          "type": "uint256[]"
        },
        {
          "internalType": "bytes[]",
          "name": "calldatas",
          "type": "bytes[]"
        },
        {
          "internalType": "bytes32",
          "name": "descriptionHash",
          "type": "bytes32"
        }
      ],
      "name": "cancel",
      "outputs": [
        {
          "internalType": "uint256",
          "name": "",
          "type": "uint256"
        }
      ],
      "stateMutability": "nonpayable",
      "type": "function"
    },
    {
      "inputs": [
        {
          "internalType": "uint256",
          "name": "proposalId",
          "type": "uint256"
        },
        {
          "internalType": "uint8",
          "name": "support",
          "type": "uint8"
        }
      ],
      "name": "castVote",
      "outputs": [
        {
          "internalType": "uint256",
          "name": "",
          "type": "uint256"
        }
      ],
      "stateMutability": "nonpayable",
      "type": "function"
    },
    {
      "inputs": [
        {
          "internalType": "uint256",
          "name": "proposalId",
          "type": "uint256"
        },
        {
          "internalType": "uint8",
          "name": "support",
          "type": "uint8"
        },
        {
          "internalType": "address",
          "name": "voter",
          "type": "address"
        },
        {
          "internalType": "bytes",
          "name": "signature",
          "type": "bytes"
        }
      ],
      "name": "castVoteBySig",
      "outputs": [
        {
          "internalType": "uint256",
          "name": "",
          "type": "uint256"
        }
      ],
      "stateMutability": "nonpayable",
      "type": "function"
    },
    {
      "inputs": [
        {
          "internalType": "uint256",
          "name": "proposalId",
          "type": "uint256"
        },
        {
          "internalType": "uint8",
          "name": "support",
          "type": "uint8"
        },
        {
          "internalType": "string",
          "name": "reason",
          "type": "string"
        }
      ],
      "name": "castVoteWithReason",
      "outputs": [
        {
          "internalType": "uint256",
          "name": "",
          "type": "uint256"
        }
      ],
      "stateMutability": "nonpayable",
      "type": "function"
    },
    {
      "inputs": [
        {
          "internalType": "uint256",
          "name": "proposalId",
          "type": "uint256"
        },
        {
          "internalType": "uint8",
          "name": "support",
          "type": "uint8"
        },
        {
          "internalType": "string",
          "name": "reason",
          "type": "string"
        },
        {
          "internalType": "bytes",
          "name": "params",
          "type": "bytes"
        }
      ],
      "name": "castVoteWithReasonAndParams",
      "outputs": [
        {
          "internalType": "uint256",
          "name": "",
          "type": "uint256"
        }
      ],
      "stateMutability": "nonpayable",
      "type": "function"
    },
    {
      "inputs": [
        {
          "internalType": "uint256",
          "name": "proposalId",
          "type": "uint256"
        },
        {
          "internalType": "uint8",
          "name": "support",
          "type": "uint8"
        },
        {
          "internalType": "address",
          "name": "voter",
          "type": "address"
        },
        {
          "internalType": "string",
          "name": "reason",
          "type": "string"
        },
        {
          "internalType": "bytes",
          "name": "params",
          "type": "bytes"
        },
        {
          "internalType": "bytes",
          "name": "signature",
          "type": "bytes"
        }
      ],
      "name": "castVoteWithReasonAndParamsBySig",
      "outputs": [
        {
          "internalType": "uint256",
          "name": "",
          "type": "uint256"
        }
      ],
      "stateMutability": "nonpayable",
      "type": "function"
    },
    {
      "inputs": [],
      "name": "clock",
      "outputs": [
        {
          "internalType": "uint48",
          "name": "",
          "type": "uint48"
        }
      ],
      "stateMutability": "view",
      "type": "function"
    },
    {
      "inputs": [],
      "name": "eip712Domain",
      "outputs": [
        {
          "internalType": "bytes1",
          "name": "fields",
          "type": "bytes1"
        },
        {
          "internalType": "string",
          "name": "name",
          "type": "string"
        },
        {
          "internalType": "string",
          "name": "version",
          "type": "string"
        },
        {
          "internalType": "uint256",
          "name": "chainId",
          "type": "uint256"
        },
        {
          "internalType": "address",
          "name": "verifyingContract",
          "type": "address"
        },
        {
          "internalType": "bytes32",
          "name": "salt",
          "type": "bytes32"
        },
        {
          "internalType": "uint256[]",
          "name": "extensions",
          "type": "uint256[]"
        }
      ],
      "stateMutability": "view",
      "type": "function"
    },
    {
      "inputs": [
        {
          "internalType": "address[]",
          "name": "targets",
          "type": "address[]"
        },
        {
          "internalType": "uint256[]",
          "name": "values",
          "type": "uint256[]"
        },
        {
          "internalType": "bytes[]",
          "name": "calldatas",
          "type": "bytes[]"
        },
        {
          "internalType": "bytes32",
          "name": "descriptionHash",
          "type": "bytes32"
        }
      ],
      "name": "execute",
      "outputs": [
        {
          "internalType": "uint256",
          "name": "",
          "type": "uint256"
        }
      ],
      "stateMutability": "payable",
      "type": "function"
    },
    {
      "inputs": [
        {
          "internalType": "address[]",
          "name": "targets",
          "type": "address[]"
        },
        {
          "internalType": "uint256[]",
          "name": "values",
          "type": "uint256[]"
        },
        {
          "internalType": "bytes[]",
          "name": "calldatas",
          "type": "bytes[]"
        },
        {
          "internalType": "bytes32",
          "name": "descriptionHash",
          "type": "bytes32"
        }
      ],
      "name": "getProposalId",
      "outputs": [
        {
          "internalType": "uint256",
          "name": "",
          "type": "uint256"
        }
      ],
      "stateMutability": "view",
      "type": "function"
    },
    {
      "inputs": [
        {
          "internalType": "bytes32",
          "name": "role",
          "type": "bytes32"
        }
      ],
      "name": "getRoleAdmin",
      "outputs": [
        {
          "internalType": "bytes32",
          "name": "",
          "type": "bytes32"
        }
      ],
      "stateMutability": "view",
      "type": "function"
    },
    {
      "inputs": [
        {
          "internalType": "address",
          "name": "account",
          "type": "address"
        },
        {
          "internalType": "uint256",
          "name": "timepoint",
          "type": "uint256"
        }
      ],
      "name": "getVotes",
      "outputs": [
        {
          "internalType": "uint256",
          "name": "",
          "type": "uint256"
        }
      ],
      "stateMutability": "view",
      "type": "function"
    },
    {
      "inputs": [
        {
          "internalType": "address",
          "name": "account",
          "type": "address"
        },
        {
          "internalType": "uint256",
          "name": "timepoint",
          "type": "uint256"
        },
        {
          "internalType": "bytes",
          "name": "params",
          "type": "bytes"
        }
      ],
      "name": "getVotesWithParams",
      "outputs": [
        {
          "internalType": "uint256",
          "name": "",
          "type": "uint256"
        }
      ],
      "stateMutability": "view",
      "type": "function"
    },
    {
      "inputs": [
        {
          "internalType": "bytes32",
          "name": "role",
          "type": "bytes32"
        },
        {
          "internalType": "address",
          "name": "account",
          "type": "address"
        }
      ],
      "name": "grantRole",
      "outputs": [],
      "stateMutability": "nonpayable",
      "type": "function"
    },
    {
      "inputs": [
        {
          "internalType": "bytes32",
          "name": "role",
          "type": "bytes32"
        },
        {
          "internalType": "address",
          "name": "account",
          "type": "address"
        }
      ],
      "name": "hasRole",
      "outputs": [
        {
          "internalType": "bool",
          "name": "",
          "type": "bool"
        }
      ],
      "stateMutability": "view",
      "type": "function"
    },
    {
      "inputs": [
        {
          "internalType": "uint256",
          "name": "proposalId",
          "type": "uint256"
        },
        {
          "internalType": "address",
          "name": "account",
          "type": "address"
        }
      ],
      "name": "hasVoted",
      "outputs": [
        {
          "internalType": "bool",
          "name": "",
          "type": "bool"
        }
      ],
      "stateMutability": "view",
      "type": "function"
    },
    {
      "inputs": [
        {
          "internalType": "address[]",
          "name": "targets",
          "type": "address[]"
        },
        {
          "internalType": "uint256[]",
          "name": "values",
          "type": "uint256[]"
        },
        {
          "internalType": "bytes[]",
          "name": "calldatas",
          "type": "bytes[]"
        },
        {
          "internalType": "bytes32",
          "name": "descriptionHash",
          "type": "bytes32"
        }
      ],
      "name": "hashProposal",
      "outputs": [
        {
          "internalType": "uint256",
          "name": "",
          "type": "uint256"
        }
      ],
      "stateMutability": "pure",
      "type": "function"
    },
    {
      "inputs": [],
      "name": "lateQuorumVoteExtension",
      "outputs": [
        {
          "internalType": "uint48",
          "name": "",
          "type": "uint48"
        }
      ],
      "stateMutability": "view",
      "type": "function"
    },
    {
      "inputs": [],
      "name": "name",
      "outputs": [
        {
          "internalType": "string",
          "name": "",
          "type": "string"
        }
      ],
      "stateMutability": "view",
      "type": "function"
    },
    {
      "inputs": [
        {
          "internalType": "address",
          "name": "owner",
          "type": "address"
        }
      ],
      "name": "nonces",
      "outputs": [
        {
          "internalType": "uint256",
          "name": "",
          "type": "uint256"
        }
      ],
      "stateMutability": "view",
      "type": "function"
    },
    {
      "inputs": [
        {
          "internalType": "address",
          "name": "",
          "type": "address"
        },
        {
          "internalType": "address",
          "name": "",
          "type": "address"
        },
        {
          "internalType": "uint256[]",
          "name": "",
          "type": "uint256[]"
        },
        {
          "internalType": "uint256[]",
          "name": "",
          "type": "uint256[]"
        },
        {
          "internalType": "bytes",
          "name": "",
          "type": "bytes"
        }
      ],
      "name": "onERC1155BatchReceived",
      "outputs": [
        {
          "internalType": "bytes4",
          "name": "",
          "type": "bytes4"
        }
      ],
      "stateMutability": "nonpayable",
      "type": "function"
    },
    {
      "inputs": [
        {
          "internalType": "address",
          "name": "",
          "type": "address"
        },
        {
          "internalType": "address",
          "name": "",
          "type": "address"
        },
        {
          "internalType": "uint256",
          "name": "",
          "type": "uint256"
        },
        {
          "internalType": "uint256",
          "name": "",
          "type": "uint256"
        },
        {
          "internalType": "bytes",
          "name": "",
          "type": "bytes"
        }
      ],
      "name": "onERC1155Received",
      "outputs": [
        {
          "internalType": "bytes4",
          "name": "",
          "type": "bytes4"
        }
      ],
      "stateMutability": "nonpayable",
      "type": "function"
    },
    {
      "inputs": [
        {
          "internalType": "address",
          "name": "",
          "type": "address"
        },
        {
          "internalType": "address",
          "name": "",
          "type": "address"
        },
        {
          "internalType": "uint256",
          "name": "",
          "type": "uint256"
        },
        {
          "internalType": "bytes",
          "name": "",
          "type": "bytes"
        }
      ],
      "name": "onERC721Received",
      "outputs": [
        {
          "internalType": "bytes4",
          "name": "",
          "type": "bytes4"
        }
      ],
      "stateMutability": "nonpayable",
      "type": "function"
    },
    {
      "inputs": [],
      "name": "pause",
      "outputs": [],
      "stateMutability": "nonpayable",
      "type": "function"
    },
    {
      "inputs": [],
      "name": "paused",
      "outputs": [
        {
          "internalType": "bool",
          "name": "",
          "type": "bool"
        }
      ],
      "stateMutability": "view",
      "type": "function"
    },
    {
      "inputs": [
        {
          "internalType": "uint256",
          "name": "proposalId",
          "type": "uint256"
        }
      ],
      "name": "proposalDeadline",
      "outputs": [
        {
          "internalType": "uint256",
          "name": "",
          "type": "uint256"
        }
      ],
      "stateMutability": "view",
      "type": "function"
    },
    {
      "inputs": [
        {
          "internalType": "uint256",
          "name": "proposalId",
          "type": "uint256"
        }
      ],
      "name": "proposalEta",
      "outputs": [
        {
          "internalType": "uint256",
          "name": "",
          "type": "uint256"
        }
      ],
      "stateMutability": "view",
      "type": "function"
    },
    {
      "inputs": [
        {
          "internalType": "uint256",
          "name": "proposalId",
          "type": "uint256"
        }
      ],
      "name": "proposalExpired",
      "outputs": [
        {
          "internalType": "bool",
          "name": "",
          "type": "bool"
        }
      ],
      "stateMutability": "view",
      "type": "function"
    },
    {
      "inputs": [
        {
          "internalType": "uint256",
          "name": "proposalId",
          "type": "uint256"
        }
      ],
      "name": "proposalNeedsQueuing",
      "outputs": [
        {
          "internalType": "bool",
          "name": "",
          "type": "bool"
        }
      ],
      "stateMutability": "view",
      "type": "function"
    },
    {
      "inputs": [
        {
          "internalType": "uint256",
          "name": "proposalId",
          "type": "uint256"
        }
      ],
      "name": "proposalProposer",
      "outputs": [
        {
          "internalType": "address",
          "name": "",
          "type": "address"
        }
      ],
      "stateMutability": "view",
      "type": "function"
    },
    {
      "inputs": [
        {
          "internalType": "uint256",
          "name": "proposalId",
          "type": "uint256"
        }
      ],
      "name": "proposalSnapshot",
      "outputs": [
        {
          "internalType": "uint256",
          "name": "",
          "type": "uint256"
        }
      ],
      "stateMutability": "view",
      "type": "function"
    },
    {
      "inputs": [],
      "name": "proposalThreshold",
      "outputs": [
        {
          "internalType": "uint256",
          "name": "",
          "type": "uint256"
        }
      ],
      "stateMutability": "view",
      "type": "function"
    },
    {
      "inputs": [
        {
          "internalType": "uint256",
          "name": "proposalId",
          "type": "uint256"
        }
      ],
      "name": "proposalVotes",
      "outputs": [
        {
          "internalType": "uint256",
          "name": "againstVotes",
          "type": "uint256"
        },
        {
          "internalType": "uint256",
          "name": "forVotes",
          "type": "uint256"
        },
        {
          "internalType": "uint256",
          "name": "abstainVotes",
          "type": "uint256"
        }
      ],
      "stateMutability": "view",
      "type": "function"
    },
    {
      "inputs": [
        {
          "internalType": "address[]",
          "name": "targets",
          "type": "address[]"
        },
        {
          "internalType": "uint256[]",
          "name": "values",
          "type": "uint256[]"
        },
        {
          "internalType": "bytes[]",
          "name": "calldatas",
          "type": "bytes[]"
        },
        {
          "internalType": "string",
          "name": "description",
          "type": "string"
        }
      ],
      "name": "propose",
      "outputs": [
        {
          "internalType": "uint256",
          "name": "",
          "type": "uint256"
        }
      ],
      "stateMutability": "nonpayable",
      "type": "function"
    },
    {
      "inputs": [
        {
          "internalType": "address[]",
          "name": "targets",
          "type": "address[]"
        },
        {
          "internalType": "uint256[]",
          "name": "values",
          "type": "uint256[]"
        },
        {
          "internalType": "bytes[]",
          "name": "calldatas",
          "type": "bytes[]"
        },
        {
          "internalType": "bytes32",
          "name": "descriptionHash",
          "type": "bytes32"
        }
      ],
      "name": "queue",
      "outputs": [
        {
          "internalType": "uint256",
          "name": "",
          "type": "uint256"
        }
      ],
      "stateMutability": "nonpayable",
      "type": "function"
    },
    {
      "inputs": [
        {
          "internalType": "uint256",
          "name": "blockNumber",
          "type": "uint256"
        }
      ],
      "name": "quorum",
      "outputs": [
        {
          "internalType": "uint256",
          "name": "",
          "type": "uint256"
        }
      ],
      "stateMutability": "view",
      "type": "function"
    },
    {
      "inputs": [],
      "name": "quorumDenominator",
      "outputs": [
        {
          "internalType": "uint256",
          "name": "",
          "type": "uint256"
        }
      ],
      "stateMutability": "view",
      "type": "function"
    },
    {
      "inputs": [
        {
          "internalType": "uint256",
          "name": "timepoint",
          "type": "uint256"
        }
      ],
      "name": "quorumNumerator",
      "outputs": [
        {
          "internalType": "uint256",
          "name": "",
          "type": "uint256"
        }
      ],
      "stateMutability": "view",
      "type": "function"
    },
    {
      "inputs": [],
      "name": "quorumNumerator",
      "outputs": [
        {
          "internalType": "uint256",
          "name": "",
          "type": "uint256"
        }
      ],
      "stateMutability": "view",
      "type": "function"
    },
    {
      "inputs": [
        {
          "internalType": "address",
          "name": "target",
          "type": "address"
        },
        {
          "internalType": "uint256",
          "name": "value",
          "type": "uint256"
        },
        {
          "internalType": "bytes",
          "name": "data",
          "type": "bytes"
        }
      ],
      "name": "relay",
      "outputs": [],
      "stateMutability": "payable",
      "type": "function"
    },
    {
      "inputs": [
        {
          "internalType": "bytes32",
          "name": "role",
          "type": "bytes32"
        },
        {
          "internalType": "address",
          "name": "callerConfirmation",
          "type": "address"
        }
      ],
      "name": "renounceRole",
      "outputs": [],
      "stateMutability": "nonpayable",
      "type": "function"
    },
    {
      "inputs": [
        {
          "internalType": "bytes32",
          "name": "role",
          "type": "bytes32"
        },
        {
          "internalType": "address",
          "name": "account",
          "type": "address"
        }
      ],
      "name": "revokeRole",
      "outputs": [],
      "stateMutability": "nonpayable",
      "type": "function"
    },
    {
      "inputs": [
        {
          "internalType": "uint48",
          "name": "newVoteExtension",
          "type": "uint48"
        }
      ],
      "name": "setLateQuorumVoteExtension",
      "outputs": [],
      "stateMutability": "nonpayable",
      "type": "function"
    },
    {
      "inputs": [
        {
          "internalType": "uint256",
          "name": "newProposalThreshold",
          "type": "uint256"
        }
      ],
      "name": "setProposalThreshold",
      "outputs": [],
      "stateMutability": "nonpayable",
      "type": "function"
    },
    {
      "inputs": [
        {
          "internalType": "uint48",
          "name": "newVotingDelay",
          "type": "uint48"
        }
      ],
      "name": "setVotingDelay",
      "outputs": [],
      "stateMutability": "nonpayable",
      "type": "function"
    },
    {
      "inputs": [
        {
          "internalType": "uint32",
          "name": "newVotingPeriod",
          "type": "uint32"
        }
      ],
      "name": "setVotingPeriod",
      "outputs": [],
      "stateMutability": "nonpayable",
      "type": "function"
    },
    {
      "inputs": [
        {
          "internalType": "uint256",
          "name": "proposalId",
          "type": "uint256"
        }
      ],
      "name": "state",
      "outputs": [
        {
          "internalType": "enum IGovernor.ProposalState",
          "name": "",
          "type": "uint8"
        }
      ],
      "stateMutability": "view",
      "type": "function"
    },
    {
      "inputs": [
        {
          "internalType": "bytes4",
          "name": "interfaceId",
          "type": "bytes4"
        }
      ],
      "name": "supportsInterface",
      "outputs": [
        {
          "internalType": "bool",
          "name": "",
          "type": "bool"
        }
      ],
      "stateMutability": "view",
      "type": "function"
    },
    {
      "inputs": [],
      "name": "timelock",
      "outputs": [
        {
          "internalType": "address",
          "name": "",
          "type": "address"
        }
      ],
      "stateMutability": "view",
      "type": "function"
    },
    {
      "inputs": [],
      "name": "token",
      "outputs": [
        {
          "internalType": "contract IERC5805",
          "name": "",
          "type": "address"
        }
      ],
      "stateMutability": "view",
      "type": "function"
    },
    {
      "inputs": [],
      "name": "unpause",
      "outputs": [],
      "stateMutability": "nonpayable",
      "type": "function"
    },
    {
      "inputs": [
        {
          "internalType": "uint256",
          "name": "newQuorumNumerator",
          "type": "uint256"
        }
      ],
      "name": "updateQuorumNumerator",
      "outputs": [],
      "stateMutability": "nonpayable",
      "type": "function"
    },
    {
      "inputs": [
        {
          "internalType": "contract TimelockController",
          "name": "newTimelock",
          "type": "address"
        }
      ],
      "name": "updateTimelock",
      "outputs": [],
      "stateMutability": "nonpayable",
      "type": "function"
    },
    {
      "inputs": [],
      "name": "version",
      "outputs": [
        {
          "internalType": "string",
          "name": "",
          "type": "string"
        }
      ],
      "stateMutability": "view",
      "type": "function"
    },
    {
      "inputs": [],
      "name": "votingDelay",
      "outputs": [
        {
          "internalType": "uint256",
          "name": "",
          "type": "uint256"
        }
      ],
      "stateMutability": "view",
      "type": "function"
    },
    {
      "inputs": [],
      "name": "votingPeriod",
      "outputs": [
        {
          "internalType": "uint256",
          "name": "",
          "type": "uint256"
        }
      ],
      "stateMutability": "view",
      "type": "function"
    },
    {
      "stateMutability": "payable",
      "type": "receive"
    }
  ],
  "bytecode": "0x610180604052348015610010575f5ffd5b506040516157b93803806157b983398101604081905261002f9161088b565b6138408683898888886040518060400160405280600f81526020016e26bc902220a79023b7bb32b93737b960891b8152508061006f6101b760201b60201c565b610079825f6101d2565b610120526100888160016101d2565b61014052815160208084019190912060e052815190820120610100524660a05261011460e05161010051604080517f8b73c3c69bb8fe3d512ecc4cf759cc79239f7b179b0ffacaa9a75d522b39400f60208201529081019290925260608201524660808201523060a08201525f9060c00160405160208183030381529060405280519060200120905090565b60805250503060c052600361012982826109ab565b50610135905083610204565b61013e8261026a565b6101478161030e565b5050506001600160a01b0316610160526101608161034f565b5061016a816103e4565b506101748161044d565b5061019f7f65d7a28e3265b37a6474929f336521b332c1681b933f6cb9f3376673440d862a826104b3565b506101aa5f336104b3565b5050505050505050610af5565b6040805180820190915260018152603160f81b602082015290565b5f6020835110156101ed576101e68361055e565b90506101fe565b816101f884826109ab565b5060ff90505b92915050565b6008546040805165ffffffffffff928316815291831660208301527fc565b045403dc03c2eea82b81a0465edad9e2e7fc4d97e11421c209da93d7a93910160405180910390a16008805465ffffffffffff191665ffffffffffff92909216919091179055565b8063ffffffff165f036102975760405163f1cfbf0560e01b81525f60048201526024015b60405180910390fd5b6008546040805163ffffffff66010000000000009093048316815291831660208301527f7e3f7f0708a84de9203036abaa450dccc85ad5ff52f78c170f3edb55cf5e8828910160405180910390a16008805463ffffffff90921666010000000000000263ffffffff60301b19909216919091179055565b60075460408051918252602082018390527fccb45da8d5717e6c4544694297c4ba5cf151d455c9bb0ed4fc7a38411bc05461910160405180910390a1600755565b60648082111561037c5760405163243e544560e01b8152600481018390526024810182905260440161028e565b5f61038561059b565b90506103a46103926105b4565b61039b8561062e565b600a9190610665565b505060408051828152602081018590527f0553476bf02ef2726e8ce5ced78d63e26e602e4a2257b1f559418e24b4633997910160405180910390a1505050565b600b54604080516001600160a01b03928316815291831660208301527f08f74ea46ef7894f65eabfb5e6e695de773a000b47c529ab559178069b226401910160405180910390a1600b80546001600160a01b0319166001600160a01b0392909216919091179055565b600d546040805165ffffffffffff928316815291831660208301527f7ca4ac117ed3cdce75c1161d8207c440389b1a15d69d096831664657c07dafc2910160405180910390a1600d805465ffffffffffff191665ffffffffffff92909216919091179055565b5f8281526010602090815260408083206001600160a01b038516845290915281205460ff16610557575f8381526010602090815260408083206001600160a01b03861684529091529020805460ff1916600117905561050f3390565b6001600160a01b0316826001600160a01b0316847f2f8788117e7eff1d82e926ec794901d17c78024a50270940304540a733656f0d60405160405180910390a45060016101fe565b505f6101fe565b5f5f829050601f81511115610588578260405163305a27a960e01b815260040161028e9190610a65565b805161059382610a9a565b179392505050565b5f6105a6600a61067f565b6001600160d01b0316905090565b5f6105bf6101605190565b6001600160a01b03166391ddadf46040518163ffffffff1660e01b8152600401602060405180830381865afa925050508015610618575060408051601f3d908101601f1916820190925261061591810190610abd565b60015b610629576106246106c7565b905090565b919050565b5f6001600160d01b03821115610661576040516306dfcc6560e41b815260d060048201526024810183905260440161028e565b5090565b5f806106728585856106d1565b915091505b935093915050565b80545f9080156106be576106a583610698600184610ad6565b5f91825260209091200190565b54660100000000000090046001600160d01b03166106c0565b5f5b9392505050565b5f6106244361082d565b82545f90819080156107d0575f6106ed87610698600185610ad6565b805490915065ffffffffffff80821691660100000000000090046001600160d01b031690881682111561073357604051632520601d60e01b815260040160405180910390fd5b8765ffffffffffff168265ffffffffffff160361076f57825465ffffffffffff1666010000000000006001600160d01b038916021783556107c2565b6040805180820190915265ffffffffffff808a1682526001600160d01b03808a1660208085019182528d54600181018f555f8f815291909120945191519092166601000000000000029216919091179101555b945085935061067792505050565b50506040805180820190915265ffffffffffff80851682526001600160d01b0380851660208085019182528854600181018a555f8a8152918220955192519093166601000000000000029190931617920191909155905081610677565b5f65ffffffffffff821115610661576040516306dfcc6560e41b8152603060048201526024810183905260440161028e565b6001600160a01b0381168114610873575f5ffd5b50565b805165ffffffffffff81168114610629575f5ffd5b5f5f5f5f5f5f5f60e0888a0312156108a1575f5ffd5b87516108ac8161085f565b60208901519097506108bd8161085f565b95506108cb60408901610876565b9450606088015163ffffffff811681146108e3575f5ffd5b608089015160a08a015160c08b015192965090945092506109038161085f565b8091505092959891949750929550565b634e487b7160e01b5f52604160045260245ffd5b600181811c9082168061093b57607f821691505b60208210810361095957634e487b7160e01b5f52602260045260245ffd5b50919050565b601f8211156109a657805f5260205f20601f840160051c810160208510156109845750805b601f840160051c820191505b818110156109a3575f8155600101610990565b50505b505050565b81516001600160401b038111156109c4576109c4610913565b6109d8816109d28454610927565b8461095f565b6020601f821160018114610a0a575f83156109f35750848201515b5f19600385901b1c1916600184901b1784556109a3565b5f84815260208120601f198516915b82811015610a395787850151825560209485019460019092019101610a19565b5084821015610a5657868401515f19600387901b60f8161c191681555b50505050600190811b01905550565b602081525f82518060208401528060208501604085015e5f604082850101526040601f19601f83011684010191505092915050565b80516020808301519190811015610959575f1960209190910360031b1b16919050565b5f60208284031215610acd575f5ffd5b6106c082610876565b818103818111156101fe57634e487b7160e01b5f52601160045260245ffd5b60805160a05160c05160e05161010051610120516101405161016051614c4d610b6c5f395f8181610c7f01528181610ed6015281816112580152818161207101526122f301525f611fb501525f611f8901525f61341501525f6133ed01525f61334801525f61337201525f61339c0152614c4d5ff3fe6080604052600436106103b6575f3560e01c80637ecebe00116101e9578063b58131b011610108578063deaaa7cc1161009d578063ece40cc11161006d578063ece40cc114610c14578063f23a6e6114610c33578063f8ce560a14610c52578063fc0c546a14610c71575f5ffd5b8063deaaa7cc14610b70578063e540d01d14610ba3578063e63ab1e914610bc2578063eb9019d414610bf5575f5ffd5b8063c59057e4116100d8578063c59057e414610ad0578063d33219b414610aef578063d547741f14610b0c578063dd4e2ba514610b2b575f5ffd5b8063b58131b014610a6b578063bc197c8114610a7f578063c01f9e3714610a9e578063c28bc2fa14610abd575f5ffd5b8063a217fddf1161017e578063a8f8a6681161014e578063a8f8a668146109e2578063a9a9529414610a01578063ab58fb8e14610a20578063af91ee3914610a56575f5ffd5b8063a217fddf1461097d578063a736920614610990578063a7713a70146109af578063a890c910146109c3575f5ffd5b806391d14854116101b957806391d148541461091857806391ddadf41461093757806397c3d3341461094b5780639a802a6d1461095e575f5ffd5b80637ecebe001461088a5780638456cb59146108be57806384b0196e146108d25780638ff262e3146108f9575f5ffd5b80633932abb1116102d5578063567813881161026a57806360c4247f1161023a57806360c4247f1461080e578063790518871461082d5780637b3c71d31461084c5780637d5e81e21461086b575f5ffd5b8063567813881461079a5780635b8d0e0d146107b95780635c975abb146107d85780635f398a14146107ef575f5ffd5b8063452115d6116102a5578063452115d6146107045780634bf5d7e914610723578063544ffc9c1461073757806354fd4d5014610771575f5ffd5b80633932abb1146106685780633e4f49e61461067c5780633f4ba83a146106a857806343859632146106bc575f5ffd5b8063248a9ca31161034b5780632fe3e2611161031b5780632fe3e261146105c857806332b8113e146105fb578063330df7ff1461062a57806336568abe14610649575f5ffd5b8063248a9ca3146105495780632656227d146105775780632d63f6931461058a5780632f2ff15d146105a9575f5ffd5b8063143489d011610386578063143489d014610490578063150b7a02146104dc578063160cbed7146105145780631aae0b1c14610533575f5ffd5b806301ffc9a7146103f157806302a251a31461042557806306f3f9e61461045057806306fdde031461046f575f5ffd5b366103ed57306103c4610ca3565b6001600160a01b0316146103eb57604051637485328f60e11b815260040160405180910390fd5b005b5f5ffd5b3480156103fc575f5ffd5b5061041061040b366004613c32565b610cbb565b60405190151581526020015b60405180910390f35b348015610430575f5ffd5b50600854600160301b900463ffffffff165b60405190815260200161041c565b34801561045b575f5ffd5b506103eb61046a366004613c59565b610ccb565b34801561047a575f5ffd5b50610483610cdf565b60405161041c9190613c9e565b34801561049b575f5ffd5b506104c46104aa366004613c59565b5f908152600460205260409020546001600160a01b031690565b6040516001600160a01b03909116815260200161041c565b3480156104e7575f5ffd5b506104fb6104f6366004613d87565b610d6f565b6040516001600160e01b0319909116815260200161041c565b34801561051f575f5ffd5b5061044261052e366004613f4d565b610db1565b34801561053e575f5ffd5b5061044262093a8081565b348015610554575f5ffd5b50610442610563366004613c59565b5f9081526010602052604090206001015490565b610442610585366004613f4d565b610dcf565b348015610595575f5ffd5b506104426105a4366004613c59565b610de4565b3480156105b4575f5ffd5b506103eb6105c3366004613fe0565b610e04565b3480156105d3575f5ffd5b506104427f3e83946653575f9a39005e1545185629e92736b7528ab20ca3816f315424a81181565b348015610606575f5ffd5b50600d5465ffffffffffff165b60405165ffffffffffff909116815260200161041c565b348015610635575f5ffd5b506103eb610644366004614021565b610e2e565b348015610654575f5ffd5b506103eb610663366004613fe0565b610e3f565b348015610673575f5ffd5b50610442610e77565b348015610687575f5ffd5b5061069b610696366004613c59565b610e89565b60405161041c9190614070565b3480156106b3575f5ffd5b506103eb610e93565b3480156106c7575f5ffd5b506104106106d6366004613fe0565b5f8281526009602090815260408083206001600160a01b038516845260030190915290205460ff1692915050565b34801561070f575f5ffd5b5061044261071e366004613f4d565b610ec5565b34801561072e575f5ffd5b50610483610ed2565b348015610742575f5ffd5b50610756610751366004613c59565b610f92565b6040805193845260208401929092529082015260600161041c565b34801561077c575f5ffd5b506040805180820190915260018152603160f81b6020820152610483565b3480156107a5575f5ffd5b506104426107b436600461408e565b610fb7565b3480156107c4575f5ffd5b506104426107d33660046140fc565b610fd1565b3480156107e3575f5ffd5b50600f5460ff16610410565b3480156107fa575f5ffd5b506104426108093660046141b8565b611093565b348015610819575f5ffd5b50610442610828366004613c59565b6110e6565b348015610838575f5ffd5b506103eb610847366004614021565b6110f2565b348015610857575f5ffd5b50610442610866366004614239565b611103565b348015610876575f5ffd5b5061044261088536600461428e565b611153565b348015610895575f5ffd5b506104426108a436600461434a565b6001600160a01b03165f9081526002602052604090205490565b3480156108c9575f5ffd5b506103eb611168565b3480156108dd575f5ffd5b506108e661119a565b60405161041c979695949392919061439f565b348015610904575f5ffd5b5061044261091336600461440e565b6111dc565b348015610923575f5ffd5b50610410610932366004613fe0565b61122b565b348015610942575f5ffd5b50610613611255565b348015610956575f5ffd5b506064610442565b348015610969575f5ffd5b5061044261097836600461445b565b6112dc565b348015610988575f5ffd5b506104425f81565b34801561099b575f5ffd5b506104106109aa366004613c59565b6112f0565b3480156109ba575f5ffd5b5061044261131e565b3480156109ce575f5ffd5b506103eb6109dd36600461434a565b611337565b3480156109ed575f5ffd5b506104426109fc366004613f4d565b611348565b348015610a0c575f5ffd5b50610410610a1b366004613c59565b611355565b348015610a2b575f5ffd5b50610442610a3a366004613c59565b5f9081526004602052604090206001015465ffffffffffff1690565b348015610a61575f5ffd5b5061061361384081565b348015610a76575f5ffd5b5061044261135d565b348015610a8a575f5ffd5b506104fb610a993660046144af565b611367565b348015610aa9575f5ffd5b50610442610ab8366004613c59565b6113aa565b6103eb610acb366004614546565b6113b4565b348015610adb575f5ffd5b50610442610aea366004613f4d565b611430565b348015610afa575f5ffd5b50600b546001600160a01b03166104c4565b348015610b17575f5ffd5b506103eb610b26366004613fe0565b611469565b348015610b36575f5ffd5b506040805180820190915260208082527f737570706f72743d627261766f2671756f72756d3d666f722c6162737461696e90820152610483565b348015610b7b575f5ffd5b506104427ff2aad550cf55f045cb27e9c559f9889fdfb6e6cdaa032301d6ea397784ae51d781565b348015610bae575f5ffd5b506103eb610bbd366004614585565b61148d565b348015610bcd575f5ffd5b506104427f65d7a28e3265b37a6474929f336521b332c1681b933f6cb9f3376673440d862a81565b348015610c00575f5ffd5b50610442610c0f3660046145a8565b61149e565b348015610c1f575f5ffd5b506103eb610c2e366004613c59565b6114bd565b348015610c3e575f5ffd5b506104fb610c4d3660046145d2565b6114ce565b348015610c5d575f5ffd5b50610442610c6c366004613c59565b611511565b348015610c7c575f5ffd5b507f00000000000000000000000000000000000000000000000000000000000000006104c4565b5f610cb6600b546001600160a01b031690565b905090565b5f610cc58261151b565b92915050565b610cd361153f565b610cdc816115b8565b50565b606060038054610cee90614629565b80601f0160208091040260200160405190810160405280929190818152602001828054610d1a90614629565b8015610d655780601f10610d3c57610100808354040283529160200191610d65565b820191905f5260205f20905b815481529060010190602001808311610d4857829003601f168201915b5050505050905090565b5f30610d79610ca3565b6001600160a01b031614610da057604051637485328f60e11b815260040160405180910390fd5b50630a85bd0160e11b949350505050565b5f610dba61164d565b610dc685858585611671565b95945050505050565b5f610dd861164d565b610dc68585858561173d565b5f90815260046020526040902054600160a01b900465ffffffffffff1690565b5f82815260106020526040902060010154610e1e816118a5565b610e2883836118af565b50505050565b610e3661153f565b610cdc81611940565b6001600160a01b0381163314610e685760405163334bd91960e11b815260040160405180910390fd5b610e7282826119a6565b505050565b5f610cb660085465ffffffffffff1690565b5f610cc582611a11565b7f65d7a28e3265b37a6474929f336521b332c1681b933f6cb9f3376673440d862a610ebd816118a5565b610cdc611b4a565b5f610dc685858585611b9c565b60607f00000000000000000000000000000000000000000000000000000000000000006001600160a01b0316634bf5d7e96040518163ffffffff1660e01b81526004015f60405180830381865afa925050508015610f5157506040513d5f823e601f3d908101601f19168201604052610f4e9190810190614661565b60015b610f8d575060408051808201909152601d81527f6d6f64653d626c6f636b6e756d6265722666726f6d3d64656661756c74000000602082015290565b919050565b5f818152600960205260409020805460018201546002909201549091905b9193909250565b5f610fc061164d565b610fca8383611bf2565b9392505050565b5f61101788888888888080601f0160208091040260200160405190810160405280939291908181526020018383808284375f920191909152508a9250899150611c119050565b611044576040516394ab6c0760e01b81526001600160a01b03871660048201526024015b60405180910390fd5b61108788878988888080601f0160208091040260200160405190810160405280939291908181526020018383808284375f920191909152508a9250611cde915050565b98975050505050505050565b5f803390506110db87828888888080601f0160208091040260200160405190810160405280939291908181526020018383808284375f920191909152508a9250611cde915050565b979650505050505050565b5f610cc5600a83611dbb565b6110fa61153f565b610cdc81611e08565b5f8033905061114986828787878080601f0160208091040260200160405190810160405280939291908181526020018383808284375f92019190915250611e6e92505050565b9695505050505050565b5f61115c61164d565b610dc685858585611e8f565b7f65d7a28e3265b37a6474929f336521b332c1681b933f6cb9f3376673440d862a611192816118a5565b610cdc611f45565b5f6060805f5f5f60606111ab611f82565b6111b3611fae565b604080515f80825260208201909252600f60f81b9b939a50919850469750309650945092509050565b5f6111e985858585611fdb565b611211576040516394ab6c0760e01b81526001600160a01b038416600482015260240161103b565b610dc685848660405180602001604052805f815250611e6e565b5f9182526010602090815260408084206001600160a01b0393909316845291905290205460ff1690565b5f7f00000000000000000000000000000000000000000000000000000000000000006001600160a01b03166391ddadf46040518163ffffffff1660e01b8152600401602060405180830381865afa9250505080156112d0575060408051601f3d908101601f191682019092526112cd918101906146d5565b60015b610f8d57610cb6612064565b5f6112e884848461206e565b949350505050565b5f5f6112fb836113aa565b905061130b600c62093a80614718565b6113159082614737565b43119392505050565b5f611329600a612101565b6001600160d01b0316905090565b61133f61153f565b610cdc81612145565b5f610dc685858585611430565b5f6001610cc5565b5f610cb660075490565b5f30611371610ca3565b6001600160a01b03161461139857604051637485328f60e11b815260040160405180910390fd5b5063bc197c8160e01b95945050505050565b5f610cc5826121ae565b6113bc61153f565b5f5f856001600160a01b03168585856040516113d992919061474a565b5f6040518083038185875af1925050503d805f8114611413576040519150601f19603f3d011682016040523d82523d5f602084013e611418565b606091505b509150915061142782826121d6565b50505050505050565b5f8484848460405160200161144894939291906147ec565b60408051601f19818403018152919052805160209091012095945050505050565b5f82815260106020526040902060010154611483816118a5565b610e2883836119a6565b61149561153f565b610cdc816121f2565b5f610fca83836114b860408051602081019091525f815290565b61206e565b6114c561153f565b610cdc8161228e565b5f306114d8610ca3565b6001600160a01b0316146114ff57604051637485328f60e11b815260040160405180910390fd5b5063f23a6e6160e01b95945050505050565b5f610cc5826122cf565b5f6001600160e01b03198216637965db0b60e01b1480610cc55750610cc58261236c565b33611548610ca3565b6001600160a01b031614611571576040516347096e4760e01b815233600482015260240161103b565b3061157a610ca3565b6001600160a01b0316146115b6575f803660405161159992919061474a565b604051809103902090505b806115af60056123d6565b036115a457505b565b6064808211156115e55760405163243e544560e01b8152600481018390526024810182905260440161103b565b5f6115ee61131e565b905061160d6115fb611255565b61160485612443565b600a919061247a565b505060408051828152602081018590527f0553476bf02ef2726e8ce5ced78d63e26e602e4a2257b1f559418e24b4633997910160405180910390a1505050565b600f5460ff16156115b65760405163d93c066560e01b815260040160405180910390fd5b5f5f61167f86868686611348565b90506116948161168f6004612494565b6124b6565b505f6116a382888888886124f3565b905065ffffffffffff81161561171a575f82815260046020908152604091829020600101805465ffffffffffff191665ffffffffffff85169081179091558251858152918201527f9a2e42fd6722813d69113e7d0079d3d940171428df7373df9c7f7617cfda2892910160405180910390a1611733565b604051634844252360e11b815260040160405180910390fd5b5095945050505050565b5f5f61174b86868686611348565b905061176b8161175b6005612494565b6117656004612494565b176124b6565b505f818152600460205260409020805460ff60f01b1916600160f01b17905530611793610ca3565b6001600160a01b03161461181c575f5b865181101561181a57306001600160a01b03168782815181106117c8576117c8614836565b60200260200101516001600160a01b031603611812576118128582815181106117f3576117f3614836565b602002602001015180519060200120600561250190919063ffffffff16565b6001016117a3565b505b6118298187878787612562565b30611832610ca3565b6001600160a01b03161415801561185e57506005546001600160801b03808216600160801b9092041614155b15611868575f6005555b6040518181527f712ae1383f79ac853f8d882153778e0260ef8f03b504e2866e0593e04d2b291f906020015b60405180910390a195945050505050565b610cdc81336125cc565b5f6118ba838361122b565b611939575f8381526010602090815260408083206001600160a01b03861684529091529020805460ff191660011790556118f13390565b6001600160a01b0316826001600160a01b0316847f2f8788117e7eff1d82e926ec794901d17c78024a50270940304540a733656f0d60405160405180910390a4506001610cc5565b505f610cc5565b600d546040805165ffffffffffff928316815291831660208301527f7ca4ac117ed3cdce75c1161d8207c440389b1a15d69d096831664657c07dafc2910160405180910390a1600d805465ffffffffffff191665ffffffffffff92909216919091179055565b5f6119b1838361122b565b15611939575f8381526010602090815260408083206001600160a01b0386168085529252808320805460ff1916905551339286917ff6391f5c32d9c69d2a47ea670b442974b53935d1edc7fd64eb21e047a839171b9190a4506001610cc5565b5f5f611a1c83612609565b90506005816007811115611a3257611a3261403c565b14611a3d5792915050565b5f838152600c60205260409081902054600b549151632c258a9f60e11b81526004810182905290916001600160a01b03169063584b153e90602401602060405180830381865afa158015611a93573d5f5f3e3d5ffd5b505050506040513d601f19601f82011682018060405250810190611ab7919061484a565b15611ac6575060059392505050565b600b54604051632ab0f52960e01b8152600481018390526001600160a01b0390911690632ab0f52990602401602060405180830381865afa158015611b0d573d5f5f3e3d5ffd5b505050506040513d601f19601f82011682018060405250810190611b31919061484a565b15611b40575060079392505050565b5060029392505050565b611b5261273a565b600f805460ff191690557f5db9ee0a495bf2e6ff9c91a7834c1ba4fdd244a5e8aa4e537bd38aeae4b073aa335b6040516001600160a01b03909116815260200160405180910390a1565b5f5f611baa86868686611348565b905033611bb7828261275d565b611be657604051638fe5d8a960e01b8152600481018390526001600160a01b038216602482015260440161103b565b6110db878787876127a2565b5f803390506112e884828560405180602001604052805f815250611e6e565b5f6110db85611cd87f3e83946653575f9a39005e1545185629e92736b7528ab20ca3816f315424a8118a8a8a611c638c6001600160a01b03165f90815260026020526040902080546001810190915590565b8b516020808e01919091208c518d830120604051611cbd98979695949301968752602087019590955260ff9390931660408601526001600160a01b03919091166060850152608084015260a083015260c082015260e00190565b604051602081830303815290604052805190602001206127af565b846127db565b5f611ced8661168f6001612494565b505f611d0286611cfc89610de4565b8561206e565b90505f611d12888888858861284b565b905083515f03611d6857866001600160a01b03167fb8e138887d0aa13bab447e82de9d5c1777041ecd21ca36ba824ff1e6c07ddda489888489604051611d5b9493929190614869565b60405180910390a2611db2565b866001600160a01b03167fe2babfbac5889a709b63bb7f598b324e08bc5a4fb9ec647fb3cbc9ec07eb87128988848989604051611da9959493929190614890565b60405180910390a25b6110db88612947565b5f5f5f611dc785612950565b9250925050838265ffffffffffff161115611df457611def611de8856129a8565b86906129da565b611df6565b805b6001600160d01b031695945050505050565b6008546040805165ffffffffffff928316815291831660208301527fc565b045403dc03c2eea82b81a0465edad9e2e7fc4d97e11421c209da93d7a93910160405180910390a16008805465ffffffffffff191665ffffffffffff92909216919091179055565b5f610dc685858585611e8a60408051602081019091525f815290565b611cde565b5f33611e9b8184612a7c565b611ec35760405163d9b3955760e01b81526001600160a01b038216600482015260240161103b565b5f611ecc61135d565b90508015611f38575f611efa836001611ee3611255565b611eed91906148c9565b65ffffffffffff1661149e565b905081811015611f3657604051636121770b60e11b81526001600160a01b0384166004820152602481018290526044810183905260640161103b565b505b6110db8787878786612b01565b611f4d61164d565b600f805460ff191660011790557f62e78cea01bee320cd4e420270b5ea74000d11b0c9f74754ebdbfc544b05a258611b7f3390565b6060610cb67f00000000000000000000000000000000000000000000000000000000000000005f612d1b565b6060610cb67f00000000000000000000000000000000000000000000000000000000000000006001612d1b565b5f610dc683611cd87ff2aad550cf55f045cb27e9c559f9889fdfb6e6cdaa032301d6ea397784ae51d788888861202d8a6001600160a01b03165f90815260026020526040902080546001810190915590565b60408051602081019690965285019390935260ff90911660608401526001600160a01b0316608083015260a082015260c001611cbd565b5f610cb6436129a8565b5f7f0000000000000000000000000000000000000000000000000000000000000000604051630748d63560e31b81526001600160a01b038681166004830152602482018690529190911690633a46b1a890604401602060405180830381865afa1580156120dd573d5f5f3e3d5ffd5b505050506040513d601f19601f820116820180604052508101906112e891906148e7565b80545f90801561213d576121278361211a6001846148fe565b5f91825260209091200190565b54600160301b90046001600160d01b0316610fca565b5f9392505050565b600b54604080516001600160a01b03928316815291831660208301527f08f74ea46ef7894f65eabfb5e6e695de773a000b47c529ab559178069b226401910160405180910390a1600b80546001600160a01b0319166001600160a01b0392909216919091179055565b5f610cc56121bb83612dc4565b5f848152600e602052604090205465ffffffffffff16612e06565b6060826121eb576121e682612e15565b610cc5565b5080610cc5565b8063ffffffff165f0361221a5760405163f1cfbf0560e01b81525f600482015260240161103b565b6008546040805163ffffffff600160301b9093048316815291831660208301527f7e3f7f0708a84de9203036abaa450dccc85ad5ff52f78c170f3edb55cf5e8828910160405180910390a16008805463ffffffff909216600160301b0269ffffffff00000000000019909216919091179055565b60075460408051918252602082018390527fccb45da8d5717e6c4544694297c4ba5cf151d455c9bb0ed4fc7a38411bc05461910160405180910390a1600755565b604051632394e7a360e21b8152600481018290525f90610cc5906001600160a01b037f00000000000000000000000000000000000000000000000000000000000000001690638e539e8c90602401602060405180830381865afa158015612338573d5f5f3e3d5ffd5b505050506040513d601f19601f8201168201806040525081019061235c91906148e7565b612365846110e6565b6064612e3d565b5f6001600160e01b031982166366defe7760e11b148061239c57506001600160e01b031982166332a2ad4360e11b145b806123b757506001600160e01b03198216630271189760e51b145b80610cc557506301ffc9a760e01b6001600160e01b0319831614610cc5565b80545f906001600160801b0380821691600160801b90041681036123fe576123fe6031612eed565b6001600160801b038181165f908152600185810160205260408220805492905585546fffffffffffffffffffffffffffffffff19169301909116919091179092555090565b5f6001600160d01b03821115612476576040516306dfcc6560e41b815260d060048201526024810183905260440161103b565b5090565b5f80612487858585612efe565b915091505b935093915050565b5f8160078111156124a7576124a761403c565b600160ff919091161b92915050565b5f5f6124c184610e89565b90505f836124ce83612494565b1603610fca578381846040516331b75e4d60e01b815260040161103b93929190614911565b5f611149868686868661304e565b81546001600160801b03600160801b82048116918116600183019091160361252d5761252d6041612eed565b6001600160801b038082165f90815260018086016020526040909120939093558354919092018216600160801b029116179055565b61256b856112f0565b156125b85760405162461bcd60e51b815260206004820152601a60248201527f476f7665726e6f723a2070726f706f73616c2065787069726564000000000000604482015260640161103b565b6125c585858585856131df565b5050505050565b6125d6828261122b565b6126055760405163e2517d3f60e01b81526001600160a01b03821660048201526024810183905260440161103b565b5050565b5f818152600460205260408120805460ff600160f01b8204811691600160f81b900416811561263d57506007949350505050565b801561264e57506002949350505050565b5f61265886610de4565b9050805f0361267d57604051636ad0607560e01b81526004810187905260240161103b565b5f612686611255565b65ffffffffffff1690508082106126a357505f9695505050505050565b5f6126ad886113aa565b90508181106126c457506001979650505050505050565b6126cd8861326f565b15806126ec57505f888152600960205260409020805460019091015411155b156126ff57506003979650505050505050565b5f8881526004602052604090206001015465ffffffffffff165f0361272c57506004979650505050505050565b506005979650505050505050565b600f5460ff166115b657604051638dfc202b60e01b815260040160405180910390fd5b5f8061276884610e89565b60078111156127795761277961403c565b148015610fca5750505f91825260046020526040909120546001600160a01b0391821691161490565b5f610dc6858585856132a5565b5f610cc56127bb61333c565b8360405161190160f01b8152600281019290925260228201526042902090565b5f836001600160a01b03163b5f03612839575f5f6127f98585613465565b5090925090505f8160038111156128125761281261403c565b1480156128305750856001600160a01b0316826001600160a01b0316145b92505050610fca565b6128448484846134ae565b9050610fca565b5f8581526009602090815260408083206001600160a01b03881684526003810190925282205460ff161561289d576040516371c6af4960e01b81526001600160a01b038716600482015260240161103b565b6001600160a01b0386165f9081526003820160205260409020805460ff1916600117905560ff85166128e65783815f015f8282546128db9190614737565b9091555061293c9050565b5f1960ff8616016129045783816001015f8282546128db9190614737565b60011960ff8616016129235783816002015f8282546128db9190614737565b6040516303599be160e11b815260040160405180910390fd5b509195945050505050565b610cdc81613584565b80545f908190819080820361296e575f5f5f93509350935050610fb0565b5f61297e8661211a6001856148fe565b546001955065ffffffffffff81169450600160301b90046001600160d01b03169250610fb0915050565b5f65ffffffffffff821115612476576040516306dfcc6560e41b8152603060048201526024810183905260440161103b565b81545f9081816005811115612a36575f6129f384613658565b6129fd90856148fe565b5f8881526020902090915081015465ffffffffffff9081169087161015612a2657809150612a34565b612a31816001614737565b92505b505b5f612a43878785856137b0565b90508015612a7057612a5a8761211a6001846148fe565b54600160301b90046001600160d01b03166110db565b5f979650505050505050565b80515f906034811015612a93576001915050610cc5565b60131981840101516001600160b01b03198116692370726f706f7365723d60b01b14612ac457600192505050610cc5565b5f5f612ad486602a86038661380f565b915091508115806110db5750866001600160a01b0316816001600160a01b03161494505050505092915050565b5f612b158686868680519060200120611348565b905084518651141580612b2a57508351865114155b80612b3457508551155b15612b6957855184518651604051630447b05d60e41b815260048101939093526024830191909152604482015260640161103b565b5f81815260046020526040902054600160a01b900465ffffffffffff1615612bb25780612b9582610e89565b6040516331b75e4d60e01b815261103b9291905f90600401614911565b5f612bbb610e77565b612bc3611255565b65ffffffffffff16612bd59190614737565b90505f612bef60085463ffffffff600160301b9091041690565b5f84815260046020526040902080546001600160a01b0319166001600160a01b038716178155909150612c21836129a8565b815465ffffffffffff91909116600160a01b0265ffffffffffff60a01b19909116178155612c4e826138b8565b815463ffffffff91909116600160d01b0263ffffffff60d01b1990911617815588517f7d84a6263ae0d98d3329bd7b46bb4e8d6f98cd35a7adb45c274c8b7fd5ebd5e090859087908c908c906001600160401b03811115612cb157612cb1613cc4565b604051908082528060200260200182016040528015612ce457816020015b6060815260200190600190039081612ccf5790505b508c89612cf18a82614737565b8e604051612d0799989796959493929190614933565b60405180910390a150505095945050505050565b606060ff8314612d3557612d2e836138e8565b9050610cc5565b818054612d4190614629565b80601f0160208091040260200160405190810160405280929190818152602001828054612d6d90614629565b8015612db85780601f10612d8f57610100808354040283529160200191612db8565b820191905f5260205f20905b815481529060010190602001808311612d9b57829003601f168201915b50505050509050610cc5565b5f81815260046020526040812054612df890600160d01b810463ffffffff1690600160a01b900465ffffffffffff16614a0e565b65ffffffffffff1692915050565b5f828218828411028218610fca565b805115612e2457805160208201fd5b60405163d6bda27560e01b815260040160405180910390fd5b5f5f5f612e4a8686613925565b91509150815f03612e6e57838181612e6457612e646146f0565b0492505050610fca565b818411612e8557612e856003851502601118612eed565b5f848688095f868103871696879004966002600389028118808a02820302808a02820302808a02820302808a02820302808a02820302808a02909103029181900381900460010185841190960395909502919093039390930492909217029150509392505050565b634e487b715f52806020526024601cfd5b82545f9081908015612ff4575f612f1a8761211a6001856148fe565b805490915065ffffffffffff80821691600160301b90046001600160d01b0316908816821115612f5d57604051632520601d60e01b815260040160405180910390fd5b8765ffffffffffff168265ffffffffffff1603612f9657825465ffffffffffff16600160301b6001600160d01b03891602178355612fe6565b6040805180820190915265ffffffffffff808a1682526001600160d01b03808a1660208085019182528d54600181018f555f8f81529190912094519151909216600160301b029216919091179101555b945085935061248c92505050565b50506040805180820190915265ffffffffffff80851682526001600160d01b0380851660208085019182528854600181018a555f8a815291822095519251909316600160301b02919093161792019190915590508161248c565b5f5f600b5f9054906101000a90046001600160a01b03166001600160a01b031663f27a0c926040518163ffffffff1660e01b8152600401602060405180830381865afa1580156130a0573d5f5f3e3d5ffd5b505050506040513d601f19601f820116820180604052508101906130c491906148e7565b90505f3060601b6bffffffffffffffffffffffff19168418600b5460405163b1c5f42760e01b81529192506001600160a01b03169063b1c5f42790613115908a908a908a905f908890600401614a2c565b602060405180830381865afa158015613130573d5f5f3e3d5ffd5b505050506040513d601f19601f8201168201806040525081019061315491906148e7565b5f898152600c602052604080822092909255600b5491516308f2a0bb60e41b81526001600160a01b0390921691638f2a0bb09161319e918b918b918b919088908a90600401614a79565b5f604051808303815f87803b1580156131b5575f5ffd5b505af11580156131c7573d5f5f3e3d5ffd5b5050505061108782426131da9190614737565b6129a8565b600b546001600160a01b031663e38335e5348686865f3060601b6bffffffffffffffffffffffff191688186040518763ffffffff1660e01b815260040161322a959493929190614a2c565b5f604051808303818588803b158015613241575f5ffd5b505af1158015613253573d5f5f3e3d5ffd5b5050505f9687525050600c602052505060408320929092555050565b5f818152600960205260408120600281015460018201546132909190614737565b61329c610c6c85610de4565b11159392505050565b5f5f6132b386868686613941565b5f818152600c6020526040902054909150801561173357600b5460405163c4d252f560e01b8152600481018390526001600160a01b039091169063c4d252f5906024015f604051808303815f87803b15801561330d575f5ffd5b505af115801561331f573d5f5f3e3d5ffd5b5050505f838152600c602052604081205550509050949350505050565b5f306001600160a01b037f00000000000000000000000000000000000000000000000000000000000000001614801561339457507f000000000000000000000000000000000000000000000000000000000000000046145b156133be57507f000000000000000000000000000000000000000000000000000000000000000090565b610cb6604080517f8b73c3c69bb8fe3d512ecc4cf759cc79239f7b179b0ffacaa9a75d522b39400f60208201527f0000000000000000000000000000000000000000000000000000000000000000918101919091527f000000000000000000000000000000000000000000000000000000000000000060608201524660808201523060a08201525f9060c00160405160208183030381529060405280519060200120905090565b5f5f5f835160410361349c576020840151604085015160608601515f1a61348e888285856139f0565b9550955095505050506134a7565b505081515f91506002905b9250925092565b5f5f5f856001600160a01b031685856040516024016134ce929190614ad0565b60408051601f198184030181529181526020820180516001600160e01b0316630b135d3f60e11b179052516135039190614ae8565b5f60405180830381855afa9150503d805f811461353b576040519150601f19603f3d011682016040523d82523d5f602084013e613540565b606091505b509150915081801561355457506020815110155b801561114957508051630b135d3f60e11b9061357990830160209081019084016148e7565b149695505050505050565b5f818152600e602052604090205465ffffffffffff161580156135ab57506135ab8161326f565b15610cdc575f6135c2600d5465ffffffffffff1690565b6135ca611255565b6135d49190614a0e565b90506135df826113aa565b8165ffffffffffff16111561362c5760405165ffffffffffff8216815282907f541f725fb9f7c98a30cc9c0ff32fbb14358cd7159c847a3aa20a2bdc442ba5119060200160405180910390a25b5f918252600e6020526040909120805465ffffffffffff191665ffffffffffff92909216919091179055565b5f60018211613665575090565b816001600160801b821061367e5760809190911c9060401b5b6801000000000000000082106136995760409190911c9060201b5b64010000000082106136b05760209190911c9060101b5b6201000082106136c55760109190911c9060081b5b61010082106136d95760089190911c9060041b5b601082106136ec5760049190911c9060021b5b600482106136f85760011b5b600302600190811c90818581613710576137106146f0565b048201901c90506001818581613728576137286146f0565b048201901c90506001818581613740576137406146f0565b048201901c90506001818581613758576137586146f0565b048201901c90506001818581613770576137706146f0565b048201901c90506001818581613788576137886146f0565b048201901c90506137a78185816137a1576137a16146f0565b04821190565b90039392505050565b5f5b81831015613807575f6137c58484613ab8565b5f8781526020902090915065ffffffffffff86169082015465ffffffffffff1611156137f357809250613801565b6137fe816001614737565b93505b506137b2565b509392505050565b5f5f845183118061381f57508284115b1561382e57505f90508061248c565b5f61383a856001614737565b84118015613862575061060f60f31b6138568787016020015190565b6001600160f01b031916145b90505f6138728215156002614afe565b61387d906028614737565b90508061388a87876148fe565b036138ab575f5f61389c898989613ad2565b909650945061248c9350505050565b5f5f93509350505061248c565b5f63ffffffff821115612476576040516306dfcc6560e41b8152602060048201526024810183905260440161103b565b60605f6138f483613b93565b6040805160208082528183019092529192505f91906020820181803683375050509182525060208101929092525090565b5f805f1983850993909202808410938190039390930393915050565b5f5f61394f86868686611348565b905061399d8161395f6007612494565b6139696006612494565b6139736002612494565b6001613980600782614b15565b61398b906002614c09565b61399591906148fe565b1818186124b6565b505f818152600460205260409081902080546001600160f81b0316600160f81b179055517f789cf55be980739dad1d0699b93b58e806b51c9d96619bfa8fe0a28abaa7b30c906118949083815260200190565b5f80807f7fffffffffffffffffffffffffffffff5d576e7357a4501ddfe92f46681b20a0841115613a2957505f91506003905082613aae565b604080515f808252602082018084528a905260ff891692820192909252606081018790526080810186905260019060a0016020604051602081039080840390855afa158015613a7a573d5f5f3e3d5ffd5b5050604051601f1901519150506001600160a01b038116613aa557505f925060019150829050613aae565b92505f91508190505b9450945094915050565b5f613ac66002848418614718565b610fca90848416614737565b5f808481613ae1866001614737565b85118015613b09575061060f60f31b613afd8388016020015190565b6001600160f01b031916145b90505f613b198215156002614afe565b90505f80613b27838a614737565b90505b87811015613b82575f613b48613b438784016020015190565b613bba565b9050600f8160ff161115613b67575f5f9750975050505050505061248c565b613b72601084614afe565b60ff909116019150600101613b2a565b506001999098509650505050505050565b5f60ff8216601f811115610cc557604051632cd44ac360e21b815260040160405180910390fd5b5f60f882901c602f81118015613bd35750603a8160ff16105b15613be157602f1901610cc5565b60608160ff16118015613bf7575060678160ff16105b15613c055760561901610cc5565b60408160ff16118015613c1b575060478160ff16105b15613c295760361901610cc5565b5060ff92915050565b5f60208284031215613c42575f5ffd5b81356001600160e01b031981168114610fca575f5ffd5b5f60208284031215613c69575f5ffd5b5035919050565b5f81518084528060208401602086015e5f602082860101526020601f19601f83011685010191505092915050565b602081525f610fca6020830184613c70565b6001600160a01b0381168114610cdc575f5ffd5b634e487b7160e01b5f52604160045260245ffd5b604051601f8201601f191681016001600160401b0381118282101715613d0057613d00613cc4565b604052919050565b5f6001600160401b03821115613d2057613d20613cc4565b50601f01601f191660200190565b5f613d40613d3b84613d08565b613cd8565b9050828152838383011115613d53575f5ffd5b828260208301375f602084830101529392505050565b5f82601f830112613d78575f5ffd5b610fca83833560208501613d2e565b5f5f5f5f60808587031215613d9a575f5ffd5b8435613da581613cb0565b93506020850135613db581613cb0565b92506040850135915060608501356001600160401b03811115613dd6575f5ffd5b613de287828801613d69565b91505092959194509250565b5f6001600160401b03821115613e0657613e06613cc4565b5060051b60200190565b5f82601f830112613e1f575f5ffd5b8135613e2d613d3b82613dee565b8082825260208201915060208360051b860101925085831115613e4e575f5ffd5b602085015b83811015611733578035613e6681613cb0565b835260209283019201613e53565b5f82601f830112613e83575f5ffd5b8135613e91613d3b82613dee565b8082825260208201915060208360051b860101925085831115613eb2575f5ffd5b602085015b83811015611733578035835260209283019201613eb7565b5f82601f830112613ede575f5ffd5b8135613eec613d3b82613dee565b8082825260208201915060208360051b860101925085831115613f0d575f5ffd5b602085015b838110156117335780356001600160401b03811115613f2f575f5ffd5b613f3e886020838a0101613d69565b84525060209283019201613f12565b5f5f5f5f60808587031215613f60575f5ffd5b84356001600160401b03811115613f75575f5ffd5b613f8187828801613e10565b94505060208501356001600160401b03811115613f9c575f5ffd5b613fa887828801613e74565b93505060408501356001600160401b03811115613fc3575f5ffd5b613fcf87828801613ecf565b949793965093946060013593505050565b5f5f60408385031215613ff1575f5ffd5b82359150602083013561400381613cb0565b809150509250929050565b65ffffffffffff81168114610cdc575f5ffd5b5f60208284031215614031575f5ffd5b8135610fca8161400e565b634e487b7160e01b5f52602160045260245ffd5b6008811061406c57634e487b7160e01b5f52602160045260245ffd5b9052565b60208101610cc58284614050565b803560ff81168114610f8d575f5ffd5b5f5f6040838503121561409f575f5ffd5b823591506140af6020840161407e565b90509250929050565b5f5f83601f8401126140c8575f5ffd5b5081356001600160401b038111156140de575f5ffd5b6020830191508360208285010111156140f5575f5ffd5b9250929050565b5f5f5f5f5f5f5f60c0888a031215614112575f5ffd5b873596506141226020890161407e565b9550604088013561413281613cb0565b945060608801356001600160401b0381111561414c575f5ffd5b6141588a828b016140b8565b90955093505060808801356001600160401b03811115614176575f5ffd5b6141828a828b01613d69565b92505060a08801356001600160401b0381111561419d575f5ffd5b6141a98a828b01613d69565b91505092959891949750929550565b5f5f5f5f5f608086880312156141cc575f5ffd5b853594506141dc6020870161407e565b935060408601356001600160401b038111156141f6575f5ffd5b614202888289016140b8565b90945092505060608601356001600160401b03811115614220575f5ffd5b61422c88828901613d69565b9150509295509295909350565b5f5f5f5f6060858703121561424c575f5ffd5b8435935061425c6020860161407e565b925060408501356001600160401b03811115614276575f5ffd5b614282878288016140b8565b95989497509550505050565b5f5f5f5f608085870312156142a1575f5ffd5b84356001600160401b038111156142b6575f5ffd5b6142c287828801613e10565b94505060208501356001600160401b038111156142dd575f5ffd5b6142e987828801613e74565b93505060408501356001600160401b03811115614304575f5ffd5b61431087828801613ecf565b92505060608501356001600160401b0381111561432b575f5ffd5b8501601f8101871361433b575f5ffd5b613de287823560208401613d2e565b5f6020828403121561435a575f5ffd5b8135610fca81613cb0565b5f8151808452602084019350602083015f5b82811015614395578151865260209586019590910190600101614377565b5093949350505050565b60ff60f81b8816815260e060208201525f6143bd60e0830189613c70565b82810360408401526143cf8189613c70565b606084018890526001600160a01b038716608085015260a0840186905283810360c085015290506144008185614365565b9a9950505050505050505050565b5f5f5f5f60808587031215614421575f5ffd5b843593506144316020860161407e565b9250604085013561444181613cb0565b915060608501356001600160401b03811115613dd6575f5ffd5b5f5f5f6060848603121561446d575f5ffd5b833561447881613cb0565b92506020840135915060408401356001600160401b03811115614499575f5ffd5b6144a586828701613d69565b9150509250925092565b5f5f5f5f5f60a086880312156144c3575f5ffd5b85356144ce81613cb0565b945060208601356144de81613cb0565b935060408601356001600160401b038111156144f8575f5ffd5b61450488828901613e74565b93505060608601356001600160401b0381111561451f575f5ffd5b61452b88828901613e74565b92505060808601356001600160401b03811115614220575f5ffd5b5f5f5f5f60608587031215614559575f5ffd5b843561456481613cb0565b93506020850135925060408501356001600160401b03811115614276575f5ffd5b5f60208284031215614595575f5ffd5b813563ffffffff81168114610fca575f5ffd5b5f5f604083850312156145b9575f5ffd5b82356145c481613cb0565b946020939093013593505050565b5f5f5f5f5f60a086880312156145e6575f5ffd5b85356145f181613cb0565b9450602086013561460181613cb0565b9350604086013592506060860135915060808601356001600160401b03811115614220575f5ffd5b600181811c9082168061463d57607f821691505b60208210810361465b57634e487b7160e01b5f52602260045260245ffd5b50919050565b5f60208284031215614671575f5ffd5b81516001600160401b03811115614686575f5ffd5b8201601f81018413614696575f5ffd5b80516146a4613d3b82613d08565b8181528560208385010111156146b8575f5ffd5b8160208401602083015e5f91810160200191909152949350505050565b5f602082840312156146e5575f5ffd5b8151610fca8161400e565b634e487b7160e01b5f52601260045260245ffd5b634e487b7160e01b5f52601160045260245ffd5b5f8261473257634e487b7160e01b5f52601260045260245ffd5b500490565b80820180821115610cc557610cc5614704565b818382375f9101908152919050565b5f8151808452602084019350602083015f5b828110156143955781516001600160a01b031686526020958601959091019060010161476b565b5f82825180855260208501945060208160051b830101602085015f5b838110156147e057601f198584030188526147ca838351613c70565b60209889019890935091909101906001016147ae565b50909695505050505050565b608081525f6147fe6080830187614759565b82810360208401526148108187614365565b905082810360408401526148248186614792565b91505082606083015295945050505050565b634e487b7160e01b5f52603260045260245ffd5b5f6020828403121561485a575f5ffd5b81518015158114610fca575f5ffd5b84815260ff84166020820152826040820152608060608201525f6111496080830184613c70565b85815260ff8516602082015283604082015260a060608201525f6148b760a0830185613c70565b82810360808401526110878185613c70565b65ffffffffffff8281168282160390811115610cc557610cc5614704565b5f602082840312156148f7575f5ffd5b5051919050565b81810381811115610cc557610cc5614704565b838152606081016149256020830185614050565b826040830152949350505050565b8981526001600160a01b0389166020820152610120604082018190525f9061495d9083018a614759565b828103606084015261496f818a614365565b9050828103608084015280885180835260208301915060208160051b84010160208b015f5b838110156149c657601f198684030185526149b0838351613c70565b6020958601959093509190910190600101614994565b505085810360a08701526149da818b614792565b93505050508560c08401528460e08401528281036101008401526149fe8185613c70565b9c9b505050505050505050505050565b65ffffffffffff8181168382160190811115610cc557610cc5614704565b60a081525f614a3e60a0830188614759565b8281036020840152614a508188614365565b90508281036040840152614a648187614792565b60608401959095525050608001529392505050565b60c081525f614a8b60c0830189614759565b8281036020840152614a9d8189614365565b90508281036040840152614ab18188614792565b60608401969096525050608081019290925260a0909101529392505050565b828152604060208201525f6112e86040830184613c70565b5f82518060208501845e5f920191825250919050565b8082028115828204841417610cc557610cc5614704565b60ff8181168382160190811115610cc557610cc5614704565b6001815b600184111561248c57808504811115614b4d57614b4d614704565b6001841615614b5b57908102905b60019390931c928002614b32565b5f82614b7757506001610cc5565b81614b8357505f610cc5565b8160018114614b995760028114614ba357614bbf565b6001915050610cc5565b60ff841115614bb457614bb4614704565b50506001821b610cc5565b5060208310610133831016604e8410600b8410161715614be2575081810a610cc5565b614bee5f198484614b2e565b805f1904821115614c0157614c01614704565b029392505050565b5f610fca60ff841683614b6956fea2646970667358221220765d57685682d737ac31b8f7f0d949574415e9c6d74460f02f70414800b580af64736f6c634300081b0033",
  "linkReferences": {},
  "deployedLinkReferences": {}
}